:020000022000DC
:1060000000000120092E0300312E0300FDF40200E0
:10601000352E0300372E0300392E03000000000048
:106020000000000000000000000000003B2E030004
:106030003D2E0300000000003F2E0300412E030010
:10604000FD190300432E0300552D0300A125030075
:10605000432E0300432E0300D11E0300432E0300F2
:10606000F124030049250300B5620200432E03001A
:10607000432E0300432E0300432E0300432E030050
:10608000432E0300F1F70200432E0300432E0300CA
:1060900091F80200432E03006D060300432E030017
:1060A000432E0300432E0300432E0300E568020045
:1060B000432E0300432E03000000000000000000F8
:1060C000432E0300432E0300432E0300432E030000
:1060D000432E0300432E0300432E03000000000064
:1060E00000000000000000000000000000000000B0
:1060F00000000000000000000000000000000000A0
:10610000000000000000000000000000000000008F
:10611000000000000000000000000000000000007F
:10612000000000000000000000000000000000006F
:10613000000000000000000000000000000000005F
:10614000000000000000000000000000000000004F
:10615000000000000000000000000000000000003F
:10616000000000000000000000000000000000002F
:10617000000000000000000000000000000000001F
:10618000000000000000000000000000000000000F
:1061900000000000000000000000000000000000FF
:1061A00000000000000000000000000000000000EF
:1061B00000000000000000000000000000000000DF
:1061C00000000000000000000000000000000000CF
:1061D00000000000000000000000000000000000BF
:1061E00000000000000000000000000000000000AF
:1061F000000000000000000000000000000000009F
:1062000010B5054C237833B9044B13B10448AFF3F0
:1062100000800123237010BDB02400200000000086
:10622000F469030008B5034B1BB103490348AFF3FE
:10623000008008BD00000000B4240020F4690300C1
:10624000154B002B08BF134B9D46A3F5803A002148
:106250008B460F461348144A121A0DF08FF80F4B55
:10626000002B00D098470E4B002B00D09847002001
:10627000002104000D000D48002802D00C48AFF3A7
:1062800000800DF01DF82000290000F03FFE0DF009
:1062900003F800BF0000080000000120000000001B
:1062A00000000000B0240020B835002000000000ED
:1062B0000000000010B5064B064C19780022C4F807
:1062C0004021FF2000F09CF901236360E36010BDD2
:1062D000334B030000A0004070B41148114B124C26
:1062E000124D00224FF0A0410270D1F8140520F0A9
:1062F0001000C1F814050326C1F810270920C3F8BF
:1063000004254FF480314FF48062C3F80865C3F868
:106310001005C3F84055C3F80413226070BC7047E1
:10632000CE24002000A0004000E100E0301A1E0151
:106330004FF0A042054BD2F810051A78C0F30010B8
:1063400040EA4200C0B21870704700BFCE2400205F
:10635000024B0122DA601A60704700BF00A00040C3
:106360004FF0A0430C21D3F8142522F00042C3F8CB
:106370001425C3F87C17D3F8142522F08042C3F803
:106380001425C3F878177047014B1878704700BF81
:10639000CF240020094B00204FF0A0421870D2F803
:1063A0001015490006D5D2F81025002AA4BF0120F7
:1063B0001870704702201870704700BFCF2400206B
:1063C000A8DF7047AADF7047ACDF7047AEDF7047C9
:1063D00062DF70470388112B1CD0502B05D0102B87
:1063E00000D0704783880B8070478A88C3889A42A0
:1063F000F7D110B5847C0C48224621460CF0C6FF2C
:1064000000F036F9844209D10849094A00230B708B
:10641000137010BD4FF6FF730B80704720460021AC
:1064200000F0EEF8F0E700BFF04A0300CD240020B2
:10643000CC240020F0B5434C064694E80F009BB0F6
:1064400006AD85E80F004FF20D0328460DF10E0151
:10645000ADF80C30FFF7BCFF00286ED132464FF686
:10646000FF7322F8023B03A90120FFF7A9FF18B12F
:10647000354AB52109F002FF94E80F000AAC84E820
:106480000F004BF6EF6320460DF11201ADF810300E
:10649000FFF79EFF00284BD101AF384603220021B1
:1064A0000CF06CFF9DF80630012464F3420341F2C6
:1064B00011151C22002113A88DF80630ADF80450E8
:1064C0000CF05CFF9DF84C30189702AF43F01A03B4
:1064D0000322002138468DF84C300CF04FFF9DF818
:1064E0000A30ADF8085064F34203142200211AACBC
:1064F0000EA88DF80A300CF041FF0023042544F863
:10650000543D0DF1100C0EAA13A9731970880F9742
:106510001294CDF838C0ADF84450ADF84050FFF7B4
:1065200051FF18B1084A9B2109F0A8FE1BB0F0BD2D
:10653000054A662109F0A2FEAEE7034AAC2109F044
:106540009DFE8BE7E04A0300204B030070B588B046
:1065500000283CD0224B044622481B7800781B03BD
:1065600043EAC023C9B243EA02230B4308220021B5
:1065700002A801930CF002FF04200DEB000302902F
:1065800002AAA18820880393FFF71EFF0546D8B909
:1065900022884FF6FF739A421DD01022294604A884
:1065A0000CF0ECFEA6882088BDF80A20039BADF80D
:1065B000106002AC069404A901248DF81240ADF8D5
:1065C00014200793FFF702FF284608B070BD0E2580
:1065D000284608B070BD0825284608B070BD00BF29
:1065E000CC240020CD2400200349044B00200122AC
:1065F000C1F800011A6070470060004000B001401F
:1066000038B5431EDBB2FD2B04460D4612D9144BA0
:106610004FF00062C3F8802005200BF007FC114BFF
:1066200001225A60DA604FF0A0430422ACB9C3F8EB
:1066300008250AE00B4A0A4BC2F844054FF00062F5
:106640001A60012105200BF057FB074B074A1D700C
:106650001470BDE8384000F0D7BDC3F80C25F4E74E
:1066600000E100E000B00140D1240020D02400204F
:10667000014B1878704700BFD0240020014B1878D8
:10668000704700BFD124002070B52D4D2B78C3F189
:10669000FF02042A064630DD1A1DD2B20533FD2A58
:1066A000DCB211D8274A284BC2F844454FF00062AB
:1066B0001A60012105200BF01FFB244B2C701E706B
:1066C000BDE8704000F0A0BD1F4B4FF00062C3F862
:1066D000802005200BF0AAFB1A4B01225A60DA60D9
:1066E0004FF0A04304220CBBC3F80825174B2C70B5
:1066F0001E70BDE8704000F087BD134B4FF0006284
:10670000C3F8802005200BF091FB0E4B0F490122AE
:106710004FF0A0405A60DA600423C0F80C35FF2324
:106720000E702B70BDE8704000F06EBDC3F80C25F4
:10673000064B2C701E70BDE8704000F065BD00BFB8
:10674000D024002000B0014000E100E0D12400206E
:1067500070B52C4D2B78042B064630D99A1FD2B237
:10676000053BFD2ADCB211D8274A284BC2F8444524
:106770004FF000621A60012105200BF0BDFA244B96
:106780002C701E70BDE8704000F03EBD1F4B4FF0F6
:106790000062C3F8802005200BF048FB1A4B012251
:1067A0005A60DA604FF0A04304220CBBC3F80825FE
:1067B000174B2C701E70BDE8704000F025BD134BC8
:1067C0004FF00062C3F8802005200BF02FFB0E4B2A
:1067D0000F4901224FF0A0405A60DA600423C0F84C
:1067E000083500230E702B70BDE8704000F00CBD22
:1067F000C3F80C25064B2C701E70BDE8704000F0ED
:1068000003BD00BFD024002000B0014000E100E043
:10681000D124002070B54FF0A04382B0D3F81425E6
:1068200042F00402C3F81425D3F8042542F0040210
:10683000C3F804250BF05AF900283DD00021ADF82B
:10684000041001240223214A8DF8044001A90520E7
:106850008DF806300BF054F918B11D4A662109F085
:106860000DFD1C4C1C4B002501260922C4F80455C3
:10687000FF21C4F80865C4F81025FA22C4F84015B1
:10688000C4F844254FF440314FF00062C4F80413BB
:106890000520C3F880200BF0C9FA4FF0A041042076
:1068A0000E4A0F4B6660E660C1F8080515701D7052
:1068B00000F0AAFC02B070BD0BF0D2F80028BDD0E9
:1068C000034A612109F0DAFCB8E700BFE96502007C
:1068D000384B030000B0014000E100E0D02400206C
:1068E000D12400200F4BD3F840215AB9D3F84411DA
:1068F00039B14FF0A0410420C3F84421C1F8080584
:10690000704770474FF0A04110B4012200240420CA
:10691000C3F84041C1F80C055A60DA605DF8044BD9
:10692000704700BF00B0014010B50C4B0FCB84B0D6
:106930006C4684E80F001322142321460848CDE951
:10694000002309F0AFFB18B1064A202109F096FC9C
:10695000002103480CF056FC04B010BD484B030066
:10696000904B03005C4B030008B50CF055FC024B48
:1069700083ED000A08BD00BFD424002008B50CF048
:106980004BFC074BD3ED007AF4EEC07AF1EE10FA2F
:1069900002DC03D4002008BD012008BD022008BD90
:1069A000D424002076DF70477ADF70477CDF7047A1
:1069B0008FDF7047014ADB2109F060BCE44B030024
:1069C000024A4FF4807109F059BC00BFE44B030048
:1069D00010B50388212B82B0044640D00DD8102B6F
:1069E00027D0112B07D1254B25491888000440F0EA
:1069F000030005F073FE02B010BD3B2B0DD0562BEB
:106A0000F9D180881321FFF7CDFF0028F3D01D4A6C
:106A100040F2791109F032FCEDE780881321FFF78D
:106A2000C1FF0028E7D0174A40F2711109F026FC97
:106A3000E1E7124B14491888000440F0030005F008
:106A40004DFE124BA1881248198001F03BFE002830
:106A5000D1D00C4A4FF4AE7109F010FCCBE702A97B
:106A6000002321F8043D8088FFF7A2FF0028C2D050
:106A7000044A40F2691109F001FCBCE768240020D7
:106A8000C04B0300E44B0300D04B03002422002042
:106A9000F025002008B5037803B108BD064B3B2163
:106AA0001888FFF77FFF0028F7D0044AF821BDE8D7
:106AB000084009F0E3BB00BF24220020E44B0300A0
:106AC00030B5037885B004460D2B0ED8DFE803F00F
:106AD0001B0D250D370D40070D4A0D520F5A8068CA
:106AE00018B12C4AA52109F0C9FB05B030BD03211E
:106AF000294800F08BFD0028F7D0264A40F24D21AE
:106B000009F0BCFBF1E7254B25491888000440F04B
:106B1000030005F0E3FD05B030BD204B40881D8823
:106B200001F0D8FB2D04227A63881E49009245F0BB
:106B300003050246284605F083FF05B030BD04A9D1
:106B4000002301F8043D408803F0BCFD05B030BDD2
:106B500007F0CCFD30F00803C7D00E4A872109F0BA
:106B60008DFBC2E700690028BFD00A4A932109F0D3
:106B700085FBBAE780680028B7D0064A992109F05A
:106B80007DFBB2E780680028AFD0024A9F2109F060
:106B900075FBAAE7E44B03002425002068240020AD
:106BA000344C0300604C030008B558B1032816D1DB
:106BB0000F4B10491888000440F00300BDE808405E
:106BC00005F08CBD0A4B0C491888000440F0030006
:106BD00005F084FD0321094800F018FD00B908BD47
:106BE000074A40F24D21BDE8084009F047BB00BF0D
:106BF00068240020F44B0300084C030024250020E7
:106C0000E44B03000A460146014809F037BB00BFC8
:106C1000EFBEADDE10B584B004AC1123114804F80A
:106C20000C3D0CF0D3FB0F4982B22046FFF7BEFEAD
:106C300098B9082202A800210CF0A0FB0A4A4FF0E4
:106C4000C87302A8CDE90223FFF7AEFE18B1074AC8
:106C5000CC2109F013FB04B010BD044AC22109F095
:106C60000DFBE6E7DC4B03005000A000E44B030003
:106C700008B50021054801F023FC00B908BD044A0D
:106C8000D421BDE8084009F0F9BA00BFDC25002096
:106C9000E44B030000B583B002A9084B41F8043D62
:106CA000074801F0FDFC18B1064AE82109F0E6FAB0
:106CB0000548FFF7BFFB03B05DF804FBB5690200B0
:106CC000F0250020E44B03001825002030B589B0E2
:106CD0001C22002101A80CF051FB00230E4A019355
:106CE000ADF812308DF814300C4B4FF420354FF4C2
:106CF0007024032101A8CDE902548DF81010CDE9CC
:106D0000062301F013FA20B1054A4FF48B7109F004
:106D1000B5FA09B030BD00BF956A0200C169020032
:106D2000E44B030010B582B009F086FBC8B902AC91
:106D3000002344F8043D0120214609F0E5FC50B948
:106D4000204609F095FD20B1094A40F2951109F05D
:106D500095FA02B010BD064A40F2911109F08EFA80
:106D6000EEE7034A40F28B1109F088FADFE700BF33
:106D7000E44B030030B583B003F052FCC0BB0522E6
:106D8000002168460CF0FAFA9DF800309DF80310D7
:106D90009DF8042043F00103032003F0F10360F3A6
:106DA00006136FF3C71341F0030142F003020725F6
:106DB000102468468DF800308DF803108DF80420FB
:106DC0008DF801508DF8024003F072FC50B90B4869
:106DD00003F052FC20B10A4A4FF4E07109F04EFA78
:106DE00003B030BD064A40F2BD1109F047FAEEE7A4
:106DF000034A4FF4D57109F041FAC0E7C16A0200B5
:106E0000E44B030070B5B0B0AC22002105A80CF033
:106E1000B5FA1C4B1C4A199293E8030008246B46F0
:106E200083E803004FF6FF750DEB04000222049384
:106E3000ADF8085001230626ADF80C404FF49675C6
:106E40000E9044F250648DF8142005A90F4A1048A2
:106E50008DF81630ADF860308DF890308DF81760F1
:106E6000CDE927542E9200F05BFB20B1094A40F295
:106E7000162109F003FA0121054800F04DFB30B05E
:106E800070BD00BFA84B030020220020A96B0200A8
:106E900024250020E44B030008B528B903210F483E
:106EA00000F0B4FB98B908BD0D4B0E4918880004DA
:106EB00040F0030005F012FC03F008FC0028F2D0BB
:106EC000094A4FF4E671BDE8084009F0D7B9064A0F
:106ED00040F24D21BDE8084009F0D0B9242500203A
:106EE00068240020B04B0300E44B030010B5FFF70B
:106EF000BFFB0446FFF7C2FBA1B282B2BDE810405F
:106F00000148FFF723BB00BF182500202DE9F04FF3
:106F100083B000F0FBF8FFF77DFCFFF7DDF9FFF72A
:106F20001FFAFFF701FD4FF40041002005F068FB58
:106F3000002840F0AF8005F005F9FFF7F3FEFFF7FA
:106F400069FEFFF795FEFFF7A5FEFFF75BFFFFF772
:106F5000BDFEFFF70FFF00F027F90020FFF79CFFB1
:106F60004F4F504E504DDFF86881DFF868B1DFF8C1
:106F700068A14FF000093B78002B28D1337803F04B
:106F8000FF04002B3DD12B7803F0FF01002B42D1F1
:106F900098F8002002F0FF03002A59D1434A1278E2
:106FA000002A5ED1424A1278002AE4D0002BE2D0B7
:106FB000404A12789A4268D03F4A12789A42DAD10F
:106FC0003E4B1878FFF760FB3B78002BD6D087F854
:106FD0000090FFF753FB394B1B788342044601D0E6
:106FE000FFF7C2FC364B1B78A342C7D0354B1B784A
:106FF000A342C3D0FFF77AFF337803F0FF04002BDE
:10700000C1D086F80090FFF793F92B78044603F07F
:10701000FF01002BBCD085F80090FFF7BBF998F872
:107020000010024601F0FF0351B9002AB6D09AF8C9
:1070300000309BF800009342C4D1FFF789FB9AE728
:10704000019088F80090FFF799FC019A0346ECE75D
:1070500088F80010FFF792FC144A12780346002AC1
:10706000A0D00193FFF704FBFF28019B9AD1FFF703
:107070008BF9019B002895D1FF2C93D1124B1978E5
:10708000FFF7BEFAFFF764F975E70C4B1878FFF7C6
:107090005FFB70E70D4A162109F0F0F84BE700BFDF
:1070A0002F3500202D3500202E350020CD24002046
:1070B000CC240020594B0300584B0300314B0300F4
:1070C000304B0300344B0300334B0300A04C030050
:1070D0002C350020324B0300DC4A0300014B012217
:1070E0001A7070472D350020014B01221A7070472D
:1070F0002E350020014B01221A7070472C350020DC
:10710000014B01221A7070472F35002008B50AF094
:107110008DFA18B11B4A122109F0B0F800200AF0CC
:10712000A3FA08F05BFD184A1848012108F0AAFDEF
:1071300010BB174A1748012108F0A4FDB8B9164A38
:107140001648012108F09EFD60B9154A1548002136
:1071500008F098FD00B908BD0A4A3221BDE8084090
:1071600009F08CB8074A302109F088F8EDE7054AA4
:107170002E2109F083F8E2E7024A2C2109F07EF87B
:10718000D7E700BFAC4C0300DD700200C44C030025
:10719000E9700200C04C0300F5700200BC4C030013
:1071A00001710200B84C030008B500224FF4004101
:1071B000114808F079FDC8B9002240F28F210F482C
:1071C00008F072FD68B9002241F69A110C4808F0E7
:1071D0006BFD00B908BD0B4A3C21BDE8084009F031
:1071E0004DB8084A3A2109F049F8ECE7054A382138
:1071F00009F044F8E0E700BF5C2600203C260020B0
:107200001C260020AC4C030008B50B4808F0A2FD7A
:1072100068B900224FF42031074808F045FD00B955
:1072200008BD064A4421BDE8084009F027B8034AD2
:10723000422109F023F8ECE7FC250020AC4C0300C8
:1072400072DF704773DF704770B5044600F1AA061D
:107250000D463046072200210CF090F8E38813B168
:10726000A378012B6AD0E379002B64D194F8AB307A
:10727000002B74D194F8AC30002B70D194F8AD3061
:10728000002B6CD194F8AE30002B68D194F8AF305D
:10729000002B64D194F8B0301A1C18BF01226B1E69
:1072A000032B00F23681DFE803F002530A0DA379C5
:1072B000002B4DD094F82430002B49D12AB9237AE1
:1072C000002B64D1657A002D4DD1A570002384F880
:1072D000B33004F13C051822002128460CF04EF88A
:1072E000E26A0123511E994284F83C3012D994F885
:1072F000242084F8513092B184F85230A3780022CF
:1073000084F85020042B00F2F380DFE803F067429A
:107310006BAA7B0094F8243084F851200BBBA3782F
:10732000002284F85020042B00F2E280DFE803F012
:107330005631D1C5CB00A378022B97D1636B002BBC
:1073400000F0E480012284F8B120082098478DE7FE
:10735000E379002BB3D0002AB1D00225B5E7012292
:107360009DE7A36AC8E70422636BA270002BADD02F
:107370006279002AAAD094F8B220002AA6D101216D
:1073800084F8B42084F8B31007209847A1E70322BB
:10739000EAE70023012002218022266484F83100DC
:1073A000C4F8A430636484F83C10A4F84820002199
:1073B0002A4604F15400FFF743FF00B170BD94F872
:1073C000301094F85400FFF73DFF0028F6D1636BAE
:1073D00013B194F831009847002070BD002384F861
:1073E0003130F4E7022384F831300723D4E9032154
:1073F00084F83C3000232664A4F84810C4F8A43074
:107400006264D4E7D4E9072162640622A4F8481034
:1074100084F83C206279002A60D094F8B220002AD7
:107420005CD194F8B420002A58D0022384F850305C
:107430000122B4F89810D4F8940000F01FFD08B1B0
:107440000423037004F1940631462A4604F15400E3
:10745000FFF7F6FE002854D10622A37884F83120E5
:1074600041E0D4E9052162640622A4F8481084F8BA
:107470003C206279002A3ED094F8B220DABB94F81E
:10748000B420C2B3022384F850300122B4F898101B
:10749000D4F8940000F0F2FC08B10423037004F166
:1074A000940631462A4604F15400FFF7C9FE40BB5A
:1074B0000522A37884F8312015E0D4E9051261642F
:1074C000A4F84820D5E7D4E907126164A4F848205D
:1074D000A0E7022384F83130032387E7042284F8ED
:1074E000312004F19406C4F8A460002B3FF46FAF80
:1074F000D4F8A4105CE7032284F8312004F1940648
:10750000F1E7A378002B3FF462AFF1E784F8B130E4
:10751000ACE60025D9E600BF80F83010704700BF08
:1075200000294BD0002849D0F8B591F87A301BB12A
:1075300091F89830002B3FD1D1F8A030042B3BD0EC
:10754000D1F89C30042B37D04FF0000C80F802C0EB
:1075500001F1780604460F460FCE251D0FC50FCE4C
:107560000FC596E8070085E8070084F830C0D7F813
:10757000A4306363D7F8A830A3634FF6FF7504F116
:107580009403C4F8A4306146A4F8A850072204F17B
:10759000AA000BF0F3FE23780BB984F8545022466E
:1075A00004F155011F25C4F89410384622F8985F5D
:1075B00000F068FA20B1F8BD0720F8BD0E20704732
:1075C000224604F17401C4F89C1007F13C0022F833
:1075D000A05F00F057FA0028EDD1D4E9052501237A
:1075E000206484F850000146626484F8513084F8C5
:1075F0003C30A4F8485004F13C0204F15400FFF779
:107600001FFE0028D7D12370F8BD00BFF8B505785C
:1076100055B104460020A1700E4607F027FB28B1A3
:10762000012363700020F8BD0820F8BD04F1AA070B
:107630000146072238460BF0A1FEE38813B1A37878
:10764000012B6BD0E37913B1A378022B66D094F8A9
:10765000AB3083B994F8AC306BB994F8AD3053B912
:1076600094F8AE303BB994F8AF3023B994F8B050E9
:10767000003518BF0125731E032B00F23181DFE8AE
:1076800003F00235080BA37983B394F824306BBB65
:107690002DB9237A002B61D1667A002E4AD1A670CB
:1076A000002384F8B33004F13C0518220021284659
:1076B0000BF064FEE26A0123511E994284F83C30CB
:1076C0001BD994F8242084F85130DAB184F8523070
:1076D000A378002284F85020042B00F29E80DFE87B
:1076E00013F066003F00D9009F006A00E379002B89
:1076F000CFD0002DCDD00226D1E794F8243084F8E5
:107700005120ABB9A378002284F85020042B00F25A
:107710008480DFE803F04C25CFB9B300636B002B06
:1077200000F0DB80012284F8B120082098478EE722
:10773000A36ACBE70422636BA270002BB0D06279FE
:10774000002AADD094F8B220002AA9D1012184F8F2
:10775000B42084F8B31007209847A4E70322EAE78F
:107760000023012002218022276484F83100C4F81C
:10777000A430636484F83C10A4F8482000212A4611
:1077800004F15400FFF75CFD00287FF44CAF94F83F
:10779000301094F85400FFF755FD00287FF443AFF4
:1077A000636B13B194F8310098470020F8BD0023B3
:1077B00084F83130F4E7D4E9072162640622A4F8A2
:1077C000481084F83C206279002A7ED094F8B220D8
:1077D000002A7AD194F8B420002A76D0022384F8C3
:1077E00050300122B4F89810D4F8940000F046FB11
:1077F00008B10423037004F1940631462A4604F1CB
:107800005400FFF71DFD002865D10622A37884F8F7
:107810003120C4F8A460002BC2D0D4F8A410AEE785
:10782000D4E9052162640622A4F8481084F83C20BB
:107830006279002A43D094F8B220002A3FD194F80C
:10784000B420002A3BD0022384F850300122B4F83F
:107850009810D4F8940000F011FB08B104230370D1
:1078600004F1940631462A4604F15400FFF7E8FC7F
:1078700088BB0522A37884F83120CAE7D4E907122F
:107880006164A4F848209EE7D4E905126164A4F875
:107890004820CDE7022384F831300723D4E90321BF
:1078A00084F83C3000232764A4F84810C4F8A430BE
:1078B000626463E7022384F831300323EEE7032296
:1078C00084F8312004F19406A3E7042284F83120DF
:1078D00004F194069DE7A3789DE784F8B130B6E6FD
:1078E0000026DCE670B50388112B0C460BD0262B46
:1078F0001ED0102B00D070BDC37B012BFBD1838821
:10790000A1F8A83070BD002381F8B2308288B1F8A8
:10791000A8309A42EFD108790028ECD10B784BB30C
:1079200001258D7007F0A2F9C0B10123637070BD0D
:10793000037A013B012BDED80B78DBB18B780E4D3F
:107940000133A5FB0325AD0805EB85055B1BDDB207
:107950008D70002007F08AF90028E6D129462046DC
:10796000FFF772FC0028C6D0A36B002BC3D0BDE884
:10797000704018470820F7E7CDCCCCCC023801285E
:1079800001D84B7803B9704770B50B7800200C46CE
:10799000487033B18D7807F069F948B101236370FD
:1079A00070BD0820A36B002BFAD0BDE870401847CB
:1079B00029462046FFF748FC0028F3D170BD00BFE0
:1079C0006DDF704779DF70477DDF704764DF704798
:1079D0002DE9F04F83B004880C9EBDF83490B6F8C2
:1079E00000A0002C39D09846002317468B46054648
:1079F0001C4603E02A880134A24224DD6A6852F85A
:107A00002400019000220DF1030101A8FFF7DEFF21
:107A100020BB9DF80320BA42ECD13288B91803B3D9
:107A200089452BDB42440DF1030101A80123FFF737
:107A3000CDFF98B931889DF803200A4432802A8806
:107A40000134A242DADC43B13388013BA3EB0A03E1
:107A50009BB2FF2B12D808F80A30002003B0BDE813
:107A6000F08F02310132894592B207DB328008F88B
:107A700002B03288013292B23280D3E70C2003B0D8
:107A8000BDE8F08F2DE9F04700231788138090F8A8
:107A90002D3086B0144605460E46002B40F0F88087
:107AA000AA78002A40F0FA80EA78A2B1D91CB9423B
:107AB00000F2F0800221F154238801339BB20121AE
:107AC0002380F15423880B449BB22380F2542388F3
:107AD0000B449BB223806A68AAB1D91CB94200F258
:107AE000D980022192F90020F154238801339BB2FE
:107AF0000A212380F154238801339BB22380F2545E
:107B00002388013323802B89002B40F018812B8A96
:107B1000002B40F02C812B8B002B40F040812B6AF6
:107B2000002B47D0B4F800E00EF10602BA4200F292
:107B3000B1801A88052A40F2FE806FF4486802EB93
:107B4000080189B24FF27D30814240F2F4805988B9
:107B5000052940F2F0806FF4486C8C441FFA8CFCCD
:107B6000844540F2E8804FF6FF70824204D08142A3
:107B700002D08A4200F2DF80052206F80E20228819
:107B8000013292B212212280B1542288013292B283
:107B900022801988B1543244090A51702288023275
:107BA00092B222805B88B35432441B0A53702388FC
:107BB000023323806B6A002B2FD09988B4F800C061
:107BC000881C0CF102020244BA4263D8FE2861D834
:107BD000033106F80C102288013292B2FF21228074
:107BE000B1542288013292B222801988B1543244B1
:107BF000090A51702088023080B220809A8862B1D0
:107C000099680393002900F0968030440BF0ABFB99
:107C1000039B9A8823881344238095F82C30002BEB
:107C200040F084802878002835D02B88012B00F084
:107C30008280228802F1020CBC452BD8012804D195
:107C40006B78023313449F4224D3BB1E9B1A06A9B0
:107C50009BB221F8083D06EB0C00FFF7B5FED0B94A
:107C60002A78022A00F0FB80012A00F00081082116
:107C7000FE2B0FD82288581CB0542288013292B2B1
:107C80002280B1542288013213442380002002E074
:107C9000082F23D80C2006B0BDE8F0870433BB4280
:107CA000F8D804A8FFF78EFE0028F4D12388BDF889
:107CB00010200321F154238801339BB21921238022
:107CC000F154238801339BB2F1182380F254120A35
:107CD0004A70238802339BB22380E5E604A8FFF7AD
:107CE0006FFE0028D7D113880822CA542388013395
:107CF0009BB21B222380CA542088013080B220808E
:107D0000062208440DF111010BF02DFB23889DF88C
:107D1000102006339BB212F0FE0218BF012223800E
:107D2000F254238801339BB22380B9E6D5F828802A
:107D3000B8F1000F4CD1072006B0BDE8F08705F17F
:107D400008080222CDE90047404611463346FFF7B6
:107D50003FFE00289FD1CDE9004740463346102220
:107D60000621FFF735FE00283FF4D1AE93E705F179
:107D70001008CDE900474046334602220321FFF7B1
:107D800027FE002887D1CDE9004740463346102220
:107D90000721FFF71DFE00283FF4BDAE7BE705F18C
:107DA0001808CDE900474046334602221421FFF768
:107DB0000FFE00287FF46FAFCDE900474046334601
:107DC00010221521FFF704FE00283FF4A8AE62E759
:107DD000B8F804200232FE2A3FF65CAF23884FF049
:107DE00000094FF0160A0132F254238801339BB286
:107DF000238006F803A0238801339BB22380B8F8C0
:107E00000020F2543344120A5A70238802339BB282
:107E10002380B8F80410F0180A4661B1D8F8083089
:107E20001946002B87D00BF09EFAB8F8042023885F
:107E300013449BB2238009F1010995F82C205FFAC5
:107E400089F94A4509EB49087FF6ECAEAA6A02EBCC
:107E50008808B8F804200232FE2AC4D91AE7BDF80F
:107E600010209342FFF403AF1346092100E76A781C
:107E70009342FFF4FCAE13460821F9E6F8B130B4A2
:107E8000437893421CD0B9B10024234601E09942C3
:107E900012D9045D013423449BB2C5181C466D7889
:107EA0009542F4D1994207D9025D0233012A9BB26F
:107EB00002D0184430BC7047002030BC7047704777
:107EC00000242346EEE700BF75DF704776DF70477A
:107ED0007ADF70477BDF704730B51D4B1A8884B25C
:107EE000A24283B001D003B030BD1A4D187A297B6D
:107EF00088420FD32A7C00211972E2B96B69002BEA
:107F0000F1D00022ADF806408DF8042001A8984772
:107F100003B030BD104603F10A01FFF7D5FF28B1C9
:107F20001128E0D0AB69002BF1D1DCE71A7A0132DD
:107F30001A7203B030BD3B212046FFF7C7FF30F077
:107F40000803DBD0AB69002BD8D09847D6E700BF39
:107F5000982600207C260020F0B50288112A83B0E4
:107F6000034649D036D9122A08D0502A04D16C4D84
:107F7000C188EA89914251D003B0F0BD694C828832
:107F800021889142F8D1E1896589B1F5FA7F24BF52
:107F90006FF4F9700E18588938BF002685424FD803
:107FA000A58985424CD39B89B34249D301F2F31191
:107FB000994245D35A4B5B694FF480712181002B64
:107FC000DAD00121ADF806208DF8041001A89847F9
:107FD00003B0F0BD102ACFD1C27B012ACCD1514CC5
:107FE00021884FF6FF7291423CD04D4B9B69002B8C
:107FF000C2D004209847BFE74A4C828823889A421F
:10800000BAD1606807F0A6FE18B1454B9B6903B171
:1080100098474FF6FF73238003B0F0BD028A022A0F
:10802000AAD1404C86882788B742A5D1123000F0EB
:10803000F7F9002856D1606807F08CFE70B99BE70D
:10804000374D267A6068D5E90131002E08BF194600
:108050000023637207F028FE00288DD0AB69002B47
:10806000B5D189E7304D8288228003CDC4F80E1047
:10807000E689C4F80A00B6F5FA7F28BF6FF4F975EF
:108080004FF00001588AB4F80AC0217228BF711954
:10809000234D8445EF8919D8B4F80CC0844515D315
:1080A0009B8A8B4212D306F2F3169E420ED3012115
:1080B0006172002F7FF460AF6B69002B3FF45CAFFF
:1080C0008DF80410ADF8062001A880E70023637244
:1080D000002F7FF451AF6068696807F0E5FD002864
:1080E000BCD149E7637A63B9D5E90131267A606882
:1080F0003A46002E08BF194607F0D6FD0028ADD13C
:108100003AE76B6900222272002B3FF435AF01225F
:10811000ADF806608DF8042001A898472CE700BF51
:108120007C26002098260020AC26002000282FD096
:10813000F8B5054606460FCD164F3C460FC484469B
:1081400095E80700144B3B6084E80700BCF1000F82
:1081500018D06046FFF7BCFE98B9326810685168C5
:1081600003C30E4B0E490F4A18464FF6FF7440F8F2
:10817000041F1C80002107F085FD002814BF032088
:108180000020F8BD1846FFF7A5FE0028E9D0F8BD8D
:108190000E2070477C260020AC2600209826002068
:1081A000B4260020D97E02002DE9F0470388B0F8FC
:1081B0000490112B98B05BD01A2B804649D0102B1D
:1081C00002D018B0BDE8F0873A4A936818A8DB439C
:1081D00040F8603D516803F07DFC009B0193019BDA
:1081E00063B300273C46214601A803F08FFD28B168
:1081F00018AB03EB4703013723F8284C0134142C48
:10820000F1D10D970DAE0FCE02AC0FC40FCE0FC43F
:1082100096E8070084E8070087B10DF10A0A264EA8
:108220000AEB47073AF8025F244C204629460434FB
:1082300003F062FDA642F8D1BA45F3D1B9F1130FAC
:108240001DD91F4AE321042008F018F818B0BDE832
:10825000F087047A1B482409012C494620D903F0F1
:1082600041FD022C494618481ED003F03BFDA8E70B
:108270004946164803F040FD18B0BDE8F08749466E
:10828000124803F02FFD49460C4803F02BFD98F8E7
:108290000F30012B95D049460D4803F023FD90E7A0
:1082A00003F02AFD0848494603F026FD18B0BDE852
:1082B000F08700BFD42600204C270020D8260020BD
:1082C000C84C0300E4260020E8260020DC2600201D
:1082D000E0260020132801D90020704710B5014680
:1082E0000446074803F012FD08B9002010BD2146DE
:1082F000044803F00BFD002814BF0220012010BD2C
:10830000D8260020E0260020132801D9002070473D
:1083100010B501460446064803F0F8FC08B90020F1
:1083200010BD21460348BDE8104003F0EFBC00BF7C
:10833000D8260020E426002008B51821024803F0C2
:10834000EFFCC0B208BD00BFD426002070B50C4CB5
:10835000054620460E4603F0D9FC08B1132D01D97D
:10836000002070BD2946201D03F0D0FC0028F7D066
:10837000B01D04EB80002946BDE8704003F0C6BC88
:10838000D4260020F8B50F4C0546204617460E4669
:1083900003F0BCFC08B1132D00D9F8BD2946201DFF
:1083A00003F0B4FC0028F8D0B01D04EB800029468F
:1083B0001FB9BDE8F84003F09FBCBDE8F84003F0EA
:1083C00091BC00BFD4260020F0B5144C054683B004
:1083D0000F4620462946164603F098FC18B900259A
:1083E000284603B0F0BD043504EB8504A36801936F
:1083F000002FF4D0019B002BF1D000252C46214604
:1084000001A803F083FC314610B1A0B2B847013592
:108410000134142CF3D1284603B0F0BDD42600203B
:10842000007800F00100704790DF7047A5DF7047CB
:10843000B5DF7047F0B5002485B003466A46204694
:1084400002A9ADF80830ADF80A3003940094ADF8F5
:108450000440FFF7E9FF064610B9304605B0F0BD0D
:10846000134F3D8807F08EF92D0445F001050346B2
:10847000224628460F4904F04DFABDF80020BDF809
:10848000023002B933B138880B49000440F00100D2
:1084900004F040FABDF80420002ADED038880749ED
:1084A000000440F0010004F0A3F9304605B0F0BD2F
:1084B00080240020184D0300644D0300A44D0300E8
:1084C00008B90E20704730B403464FF01712002051
:1084D0001B2541F61B3419611A60C3F806201D7173
:1084E0009872D8729C8130BC704700BF838823BBD0
:1084F00030B50288232A83B00C461FD03FD93A2AD0
:1085000024D0552A4DD0242A6BD0A37A9BB1E18880
:108510000020FFF78BFF00283FD011280BD05B4BCA
:108520001C8807F02FF9240444F00104024658493E
:10853000204604F05DF903B030BD70470B7B007A34
:10854000984228BF1846FFF775FFDEE74389C988C0
:1085500022698B4228BF0B46172B38BF1723238174
:108560004AB1E17A39B140F677210091ADF8043093
:108570006946204690470023E372A372DBE7102A86
:1085800040D0112AC1D14FF0171141F61B32A3720E
:10859000E372C4F80610A281CDE70122A072E27254
:1085A000C9E7C288C988A372172A38BF17228A422E
:1085B00028BF0A4618462281FFF73AFF00283BD120
:1085C000E37A002BA1D12369002B9ED040F67721BE
:1085D00022890091ADF80420694620469847A37A85
:1085E00094E70A69017A6173002A8ED04DF67A20E9
:1085F000ADF8043000908DF804102046694690478D
:10860000A37A83E70B790B73C27B012A11D0022A6C
:108610000CD0C98822898A421BD3627B9A42BFF45C
:1086200074AF1846FFF706FFA37A6FE74988E18029
:10863000F0E70988E180EDE7144B1D8807F0A2F808
:108640002D0445F0010502461249284604F0D0F8F1
:10865000B6E70020FFF7EAFE18B90123E372237B97
:10866000DBE7112803D10123A372237BD5E7074B56
:108670001D8807F087F82D0445F0010502460449DE
:10868000284604F0B5F8237BC7E700BF802400200C
:10869000FC4D0300304E0300B0DF704766DF7047CB
:1086A00060B159B10378DE2B0AD00B684360DE223B
:1086B0004FF6FF7302704380002070470E20704712
:1086C0000820704738B10378DE2B02D141800020AA
:1086D0007047082070470E20704700BF19B110B1D5
:1086E0000B78DE2B00D0704730B505464B8880886C
:1086F000984285B00C4606D02A88012A0DD0512A0E
:1087000020D005B030BD0B7A002B35D12B88112B32
:1087100048D0512B4DD0012BF3D12B7A012BF0D126
:1087200062888242EDD123720021FFF7B7FF002853
:108730004ED0112808BF2372E3D063689847E0E762
:108740006388A8888342DCD1AA79022AD9D1A97B7F
:1087500001F0FD0004282ED00529D2D10020694661
:10876000C1E90200009048608DF800201846FFF72C
:1087700093FF0028E1D1C4E70021FFF78FFF0346F4
:10878000A8B1112812D0636898472B88112B05D007
:10879000512BD5D0012BB4D1A888BEE7AA88638815
:1087A0009A42AED14FF6FF736380AAE7012323728A
:1087B000EBE70346C6E7694600204FF4C075486002
:1087C0000090C1E902008DF80020ADF80450CDE71B
:1087D000207296E730B5002187B004462A4802F09F
:1087E00063F808B907B030BD204600F009FB112836
:1087F000034641D011D9862831D043F2020290427B
:1088000013D1224B204619780022FFF7BBFD00212F
:108810001D4802F073F807B030BD30B91B4902465D
:1088200009782046FFF7AEFDDCE70025CDE90455C9
:108830000722CDE9015520460393ADF806408DF897
:10884000042000F0A7FDADF8080001A801F0C0FE6B
:108850000E4B2A4620461978FFF794FDD7E70025EE
:108860000623CDE901552046ADF80640CDE9035574
:1088700005958DF80430E4E7044B20461978012271
:10888000FFF780FDC3E700BF4C2700204E270020E4
:1088900070B54FF6FF728AB000249042CDE90044D3
:1088A000CDE902440494ADF8020001D10AB070BDD4
:1088B000054600F0F3FA0B28064634D00FD91128EC
:1088C0000BD043F20203984218D122461D4B284692
:1088D0001978FFF757FD0AB070BD0122F6E768B9B5
:1088E0000E23BDF802008DF8003000F053FDADF806
:1088F0000400684601F06CFE3246E7E700240723D7
:108900002846CDE9054407968DF81430ADF8165089
:10891000CDE9084400F03EFDADF8180005A801F0CF
:1089200057FE2246D2E70F23BDF802008DF8003033
:1089300000F030FDADF80400684601F049FE224623
:10894000C4E700BF4D27002070B5304E86B03178A7
:108950000546FFF7FBFC08B106B070BD044628468B
:1089600000F0F4FA08282DD029D943F202039842E6
:1089700049D043F20143984240D0112843D000230C
:10898000072203902846CDE90133CDE904338DF861
:108990000420ADF8065000F0FDFCADF8080001A879
:1089A00001F016FE01221A4B28461978FFF7EAFC5F
:1089B000224631782846FFF7E5FC06B070BD40B18D
:1089C0000628DCD1284600F0E5FC00F0DBFA0022A6
:1089D000E9E710232846CDE90144CDE90344059495
:1089E0008DF80430ADF8065000F0D4FC0124ADF849
:1089F000080001A801F0ECFD2246D4E72846FFF765
:108A000047FF0122CFE70122CDE700BF502700201A
:108A10004F27002070B54FF6FF728AB000249042B5
:108A2000CDE90044CDE902440494ADF8020001D13F
:108A30000AB070BD054600F031FA0B28064634D066
:108A40000FD911280BD043F20203984218D12246C5
:108A50001D4B28461978FFF795FC0AB070BD01221E
:108A6000F6E768B90E23BDF802008DF8003000F07B
:108A700091FCADF80400684601F0AAFD3246E7E734
:108A8000002407232846CDE9054407968DF81430C5
:108A9000ADF81650CDE9084400F07CFCADF81800A4
:108AA00005A801F095FD2246D2E70F23BDF802008C
:108AB0008DF8003000F06EFCADF80400684601F05F
:108AC00087FD2246C4E700BF4D270020F0B504789B
:108AD0008BB00CB10BB0F0BD468800944FF6FF731D
:108AE0009E420546ADF80260CDE90144CDE903445C
:108AF0000CD1304600F014FA0028EBD02A4B6888DD
:108B000019780122FFF73EFC0BB0F0BD304600F0B3
:108B1000C5F90B28074639D012D9112834D043F2B1
:108B2000020398421BD12246204B30461978FFF7AA
:108B300029FC6E88304600F0F3F90028CAD0DDE742
:108B400068B90E23BDF802008DF8003000F022FC59
:108B5000ADF80400684601F03BFD3A46E4E7002426
:108B600007233046CDE9054407978DF81430ADF85A
:108B70001660CDE9084400F00DFCADF8180005A81A
:108B800001F026FD2246CFE70122CDE70F23BDF8F5
:108B900002008DF8003000F0FDFBADF804006846DF
:108BA00001F016FDBFE700BF4F2700204D27002032
:108BB000F0B50378082B83B007D0224C20782249E7
:108BC0000022FFF701FC03B0F0BD417A0446002902
:108BD000F3D1057A072D22D0082D2DD0012DECD10F
:108BE0006A462946808801F021F906460028E4D12A
:108BF000019B1B78002BE0D0A08800F0ADFC4FF665
:108C0000FF739842D9D0114F0E4C39782A46FFF79E
:108C1000B9FB324638780E49FFF7D6FBCEE780889D
:108C2000084C00F099FC4FF6FF739842C6D0012221
:108C30002178FFF7A7FBC1E70648024C01F05EFE72
:108C4000BCE700BF4E270020D58702004F27002039
:108C5000498902004C27002070B5FFF76DFB104CCE
:108C6000104D2070FFF768FB2870FFF765FB0E4E74
:108C70003070FFF761FB23780C4A182B10700DD071
:108C80002B78182B0AD03378182B07D0182805D04A
:108C90000121074801F000FE002070BD032070BDD7
:108CA0004E2700204D2700204F270020502700206E
:108CB0004C27002070B503888588522B86B050D091
:108CC000542B26D0502B0DD0284C294B29491878ED
:108CD0000022FFF779FB207827490022FFF774FB79
:108CE00006B070BD037B012BEED1827A012AEBD155
:108CF000018942F602139942E6D1204E1B4C31788D
:108D00002846FFF73FFB30781D490022FFF75CFB48
:108D1000DBE7002611232846CDE90166CDE903668D
:108D20008DF80430ADF80650059600F033FBADF831
:108D3000080000F027F9134B0C4C197832462846EE
:108D4000FFF720FB324628462178FFF71BFBBDF8D2
:108D5000060000F01FFBADF8080001A801F038FC88
:108D6000B3E72846FFF794FD004CAEE74F270020FD
:108D70004D270020158A0200498902004E27002055
:108D8000D587020050270020AFDF7047B1DF704762
:108D9000B2DF7047B3DF704770B5134C23884FF6CE
:108DA000FF75AB4282B00DD0104A92E803006E46C8
:108DB00086E8030000221846314601F0F1F92388C5
:108DC000AB420CD102B070BD184601F0D9F90022B7
:108DD0003146208001F0E4F92388AB42F2D011281B
:108DE000F2D102B070BD00BF52270020704E0300C8
:108DF000024B4FF6FF721A80002070475227002066
:108E00002DE9F04182B0074600F0C4FA4FF6FF7337
:108E100098423CD0064601244FF003086B46224698
:108E20000821304601F006F803230546F0B9019AFF
:108E30003846911D42F8048BFFF7AAFF0134034620
:108E40000821D8B10C28304603D1A4B201F0A6F80D
:108E5000E4E70821052B18BF1D4601F09FF8002804
:108E600018BF0325284602B0BDE8F081072814BFCB
:108E700005460C25284602B0BDE8F0813246304652
:108E800001F046F90546284602B0BDE8F08143F2FC
:108E90000205284602B0BDE8F08100BF2DE9F0418F
:108EA00082B0074600F076FA4FF6FF73984227D15A
:108EB0000026354603244FF0010823463246294652
:108EC0003846FFF763FF04280AD008280AD00B2889
:108ED0000AD0B8F1000F08BF0B2002B0BDE8F08146
:108EE0001120F6E70020F4E714F0020406D195B152
:108EF0002646254603244FF00008DEE70124FAE762
:108F00006A46082100F092FF0028D1D1019DAE8869
:108F10002C680635CFE7002EDFD02E460324EAE783
:108F200000B585B00DF10703039300F033FA02AAF0
:108F3000012100F07BFF20B9039B187805B05DF894
:108F400004FB002005B05DF804FB00BF38B50C4BF6
:108F500004461846FFF71EFF78B9198843F2030547
:108F60004FF6FF722046FFF70FFFA84200D038BD32
:108F70001988013189B21980F2E7032038BD00BF9A
:108F80005427002010B5074B044693E8030082B035
:108F90006B4683E8030000221946204601F000F9E1
:108FA00002B010BD784E030046DF70470388102BD7
:108FB00000D070472DE9F043041D0FCC9FB007ADE2
:108FC0000FC50FCC0FC594E807009DF8203003F0C3
:108FD000FE03062B85E8070062D1BDF81C704FF632
:108FE000FF75AF4259D0DFF834828B4E98F80010ED
:108FF00001223846FFF7C6F998F800103846FFF707
:10900000A5F9002867D00023324602E00133142B73
:1090100061D05188B94202F10C02F7D1DBB203EB07
:10902000430308AA9B0092E80300F41804F1080225
:10903000606022F8021B4FF6FF70090CF052678047
:1090400011704FF6FF739D4227D0BDF81C40734B43
:1090500020461978FFF77AF978B16F4E002332462F
:1090600002E00133142B08D05188A14202F10C0216
:10907000F7D103EB430326F823501EAC002304F87A
:10908000303DBDF81C30ADF84C502046ADF84A30AC
:1090900001F0B2FA2046FFF719FD1FB0BDE8F083DA
:1090A00000F00AFC9DF820305B08012B26D9022B2A
:1090B00093D105AD0DF1060405E09DF8203003F0D5
:1090C000FE03042B42D02A462146072000F0FCFB79
:1090D0000028F2D181E7DFF84091002402E001345A
:1090E000142CAED0B9F8020098F80010FFF72EF952
:1090F00009F10C090028F2D1E3B290E705AD0DF1BA
:1091000006042A462146072000F0DEFB00283FF433
:1091100064AF069911F1110FF3D09DF820304A7C0D
:10912000534013F0FE0FECD1123106220DF1210055
:109130000AF00AF90028E4D1BDF81C70BDF8065009
:109140004FF6FF739F423FF47CAF4CE7069E03222D
:109150000DF1210102A80AF006F9032209A904A8C9
:109160000AF001F9337C8DF84830F37B8DF84930F3
:10917000B37B8DF84A30737B8DF84B30337B8DF8A1
:109180004C30F37A8DF84D30B37A8DF84E30737AD7
:109190008DF84F30337A8DF85030F3798DF85130A7
:1091A000B3798DF8523073798DF8533033798DF867
:1091B0005430F3788DF85530B3788DF85630737895
:1091C0008DF857300D22002116A80AF0D7F89DF827
:1091D00010109DF811209DF812308DF8671012A81C
:1091E0008DF866208DF86530FFF7DEFE9DF877205C
:1091F0009DF876609DF875308DF80C2003A9032248
:1092000002A88DF80D608DF80E300AF09DF8002848
:109210007FF459AF90E700BF582700205627002061
:10922000F8B5102204460D460130013104F1110653
:109230000AF08AF800284DD16378F3B9A378E3B92E
:10924000E378D3B92379C3B96379B3B9A379A3B95F
:10925000E37993B9237A83B9637A73B9A37A63B94B
:10926000E37A53B9237B43B9637B33B9A37B23B937
:10927000E37B13B9277C002F2DD06B78002B4DD1C9
:10928000AB78002B4AD1EB78002B47D12B79002B00
:1092900044D16B79002B41D1AB79002B3ED1EB79D6
:1092A000002B3BD12B7A002B38D16B7A002B35D198
:1092B000AB7A002B32D1EB7A83BB2B7B73BB6B7BFE
:1092C00063BBAB7B53BBEB7B43BB2F7C003718BF2F
:1092D000012700E00027637C46B115F1110605D097
:1092E0006A7C5A4012F0FE0F0CD0002603F0FC03FB
:1092F000042B05D06B7C03F0FC03042B18BF37460E
:109300003846F8BD062205F1120104F112000AF0F8
:109310001BF8B0FA80F67609637CE7E70127DAE705
:1093200030B585B005460C4600F0C6FA03E0BDF83E
:109330000630A3420BD102AA0DF10601072000F06E
:10934000C3FA0028F3D14FF6FF7005B030BD039982
:109350002846FFF765FF0028EDD0BDF80600F4E7CA
:1093600010B50A4B0A4C1822227003F1F0014FF697
:10937000FF725A800C338B42FBD1FEF7DDFF1828B9
:1093800020700CBF0320002010BD00BF5827002014
:109390005627002010B50D4B19780446FEF7D6FF6E
:1093A00080B10B480023024602E00133142B09D0A0
:1093B0005188A14202F10C02F7D103EB430330F8CC
:1093C000230010BD4FF6FF7010BD00BF56270020D0
:1093D0005827002038B5114B0D4619780446FEF782
:1093E000B5FFC0B10E480023024602E00133142B42
:1093F00011D05188A14202F10C02F7D103EB4303D3
:1094000000EB83031A1D586828601B899279AA71A2
:10941000AB80002038BD052038BD00BF5627002096
:109420005827002008B502887AB983786BB9C378C9
:109430005BB903794BB943793BB983792BB9C379CC
:109440001BB9037A0BB9437A13B10B88934201D04D
:10945000002008BD02310822023009F075FFB0FA81
:1094600080F0400908BD00BF30B585B00446851CBA
:1094700000F022FA02AA0DF10601072000F024FAFA
:1094800000285AD023880399002B35D1A278002ACE
:1094900057D1E378002B49D12279002A46D162794D
:1094A000002A43D1A279002A40D1E279002A3DD195
:1094B000227A002A3AD1627A002A37D12379002B06
:1094C0002FD1627952B9A379002B2AD1E2792AB936
:1094D000237A002B3AD1627A002ACBD04A8D9A4265
:1094E000C8D12C310822284609F02EFF0028C1D10E
:1094F000BDF8060005B030BDB1F846209A42EDD166
:1095000048310822284609F01FFF0028F0D02388A0
:109510000399002BE2D1A278002ADFD1E378002B57
:10952000CCD04A8D00239A42A4D1DAE7B1F8462084
:10953000002AE5D0002BC1D0F3E74FF6FF7005B04D
:1095400030BDB1F84620002ADAD0C7E713464A8D6D
:109550009A428FD1C5E700BF10B40C4C00232246BD
:1095600002E00133142B0CD01188814202F10C026D
:10957000F7D103EB430304EB83035DF8044B5888F6
:1095800070474FF6FF705DF8044B70475827002076
:1095900038B50C4B0D4619780446FEF7D7FE78B166
:1095A00009480023024602E00133142B08D05188F9
:1095B000A14202F10C02F7D103EB430320F8235040
:1095C00038BD00BF5627002058270020F8B51C4C96
:1095D00000232546224602E00133142B2CD01188AB
:1095E000814202F10C02F7D103EB430305EB830345
:1095F0005E8800F08FFB4FF6FF739E42074600D057
:1096000008B13846F8BD0F4B30461978FEF79EFE7C
:109610000028F6D03B4602E00133142BF1D06288DB
:10962000B24204F10C04F7D103EB43034FF6FF728F
:1096300025F823203846F8BDBDE8F84000F06ABBA5
:109640005827002056270020F0B500238BB0224F6A
:109650001946082268463B7009F090FE4FF6FF70ED
:1096600000F03CFE4FF6FF76B0421BD0044607E008
:1096700000F0DEFD204600F031FEB042044611D07D
:10968000A4F58045ADB228466A4602A905F04AF91C
:109690000A282046ECD0284604F0F0FF08280346AC
:1096A00002D02BB90BB0F0BD01233B700BB0F0BD65
:1096B00000220721079305A84FF6FF73CDE9052285
:1096C000CDE90822ADF818408DF81410ADF8163029
:1096D00000F02AFA0BB0F0BD5028002010B58389A5
:1096E000047886B003F5804300229BB2611ECDE969
:1096F0000122CDE90322ADF80830059204290ED8E5
:10970000DFE801F02C2C2C14030013224FF0FF3360
:1097100001A88DF80420CDF8063000F005FA294C98
:1097200023780BB1FFF790FF06B010BD43F6FE7231
:109730009342F4D8C289002AF1D14268002A3AD073
:109740000B238DF804301F4C01224FF6FF7301A844
:109750002270ADF8063000F0E7F9E1E743F6FE725B
:109760009342C1891ED8D0E90132A4F10304B4FAAE
:1097700084F464098DF80C108DF80D400492BBB987
:109780009DF8143043F001038DF8143008224FF691
:10979000FF7301A88DF80420ADF80630094C00F0E5
:1097A000C3F9BDE701F580439BB29342DBD9B6E72D
:1097B00005930922EBE718460A238DF8043000F0E0
:1097C00037FDC0E75028002030B5194889B004F0B3
:1097D000F9FA48BB04F00CFB054608BB00F0E4FCBA
:1097E00003A80822294609F0C9FD0DE005A804F0E8
:1097F000CFFC019B9C8804F58044A4B205A804F02A
:10980000EFFC204600F0E6FC05A903AA4CF2070095
:1098100005F01AF801A90028E8D0284609B030BDA3
:109820008625284609B030BD0325284609B030BD3D
:10983000DD960200F0B5FF2887B004D8012906D0D4
:109840000C1F042C03D90724204607B0F0BD0D4699
:1098500004460021174601A808221E4609F08EFD85
:10986000A4F58040A5F5804180B201AB03AA89B27E
:1098700004F078FFB0B901A903A804F089FC0446FC
:1098800080B9019BBD705A883A808EB133689200CE
:1098900093420BD37868029909F065FD03A804F0A0
:1098A0009FFCD1E70524204607B0F0BD0424CBE798
:1098B000029B7B60F2E700BF08220021014809F00B
:1098C0005DBD00BF48280020012804D0031F042BE1
:1098D00001D90120704770B5044686B0A0F58040DC
:1098E00015460E4680B203A90D4A04F0ADFF10B133
:1098F000002006B070BD01A903A804F049FC0028AF
:10990000F6D1019BAC705988029A29806A609B88C5
:1099100003F5804303A8338004F062FC0120E8E7EC
:109920004828002008B58278012A034604D0043A6A
:10993000042A01D9072008BD0846198804F076FCDE
:10994000072805D00928F6D0002818BF032008BD35
:10995000862008BD00B583B002AB43F8040D18465D
:1099600004F0A6FC002814BF0320002003B05DF81B
:1099700004FB00BFF0B58BB0FF28019205D88A78B0
:10998000012A06D0141F042C03D9072420460BB04B
:10999000F0BDA0F58044A2F5804295B24F68ADF8C5
:1099A0001250A4B208221E4602A80B88069300217A
:1099B000ADF81040059709F0E1FC2946204602ABBE
:1099C00007AA04F0CFFE90B9019B2BBB04A907A8FE
:1099D00004F0B4FD04460E2C22D8DFE804F0142174
:1099E00021212121211B1021212121211000019B56
:1099F000C3B904A907A804F087FC0446EBE71124C7
:109A000020460BB0F0BD002EC0D0314607A804F0B0
:109A1000F7FFBBE78624B9E701A804F049FCD5E7C6
:109A20000324B3E701AA04A907A804F00BFD044628
:109A3000D1E700BF4FF6FF7000F0CCBBFF2806D87F
:109A400008B500F0E3FBFFF7FFFD002008BD07208D
:109A5000704700BF00F000BC00F008BC00F03EBC46
:109A600010B582B08278417B044600232C48CDE9B2
:109A700000338DF8022000F0DFFE00283BD0237B6E
:109A8000A178019003EB83039B004A1EADF80030E0
:109A90008DF80210072A08D8DFE802F02007070730
:109AA000072004301423ADF80030694604F10803A0
:109AB00062682088FFF75EFF07280DD012D91128B1
:109AC00022D0862817D1A37B164A03F0FD0343F06A
:109AD00001030121A373117002B010BD0123ADF881
:109AE0000030E2E738B9A37B60F3410360F3000381
:109AF000A37302B010BD032002B010BD83880933E8
:109B00009B08ADF80030D0E7A37B064A43F0020380
:109B10006FF3000301210020A373117002B010BD88
:109B2000F8280020F42800202DE9F041574DC368A3
:109B3000AA68934286B0044600F0A580AA6905F1A0
:109B40001006934218BF00262378092B00F081806D
:109B5000132B7CD0082B27D00026204600F044FC95
:109B6000204601F0BDFE4A4F2046FFF715F920467A
:109B7000FFF71EF83B7813B906B0BDE8F081AB7B68
:109B8000980737D413F0010302D0002E32D13346A8
:109B9000AA7F910754D4D20750D4002BECD10023D4
:109BA0003B7006B0BDE8F081677A002FD4D1002E5B
:109BB000D3D0337B5BB1DFF8E080717B3944C9B22D
:109BC000404600F051FE337B01379F42F5D3B37B13
:109BD00003F0FD036FF300034FF6FF72B373FF2131
:109BE00000233280B27071733373C6E901331E46AD
:109BF000B3E71E462548FFF733FF00283FD0002378
:109C00001B014FF6FF72EB5AADF808308628ADF80D
:109C1000062036D00390072306AC04F8143D2046F6
:109C200000F0E2FB204601F05BFE2046FFF7B4F8AF
:109C30002046FEF7BDFF06B0BDE8F081002EACD097
:109C40001448FFF70DFF002896D00123D8E701261E
:109C500083E7637A002B7FF47FAF002E3FF47DAF64
:109C6000B27BB36042F00202B273AA7B084F0121BB
:109C700096073970BDD4AB7F9C0790D5E0E70123F0
:109C800086E70623C8E72E465EE700BF08290020C6
:109C9000F428002018290020F828002030B5184C9E
:109CA000184BA57BA27F184905F0FD05FF206FF337
:109CB000000585B06073A57300204FF0500C02259D
:109CC00002F0FD0260F30002CDE9015C0125009580
:109CD000A2774FF6FF752073C4E901002077C4E92D
:109CE0000500A02209482580A5702582A574657706
:109CF00000F03AFD002814BF0320002005B030BD5D
:109D0000082900202829002054280020F8280020B5
:109D1000FFF790BE2DE9F04FDFF80881B8F800306A
:109D2000B8F81060984283B005460DD0B04274D0A8
:109D30002846FFF783FE074610B1072818BF032700
:109D4000384603B0BDE8F08F002240460192354A04
:109D5000002702F1100A9D425CD0B54205D0002FC9
:109D6000E6D0384603B0BDE8F08F54460121807834
:109D7000A378834209D05446002936D1B5424FF02A
:109D80000101F5D0002FECD1D2E7A37B9B07F2D1E4
:109D9000A368002BEFD16068002834D14FF0000B8E
:109DA000237B6BB1204E4FF00009617B4944C9B25F
:109DB000304600F059FD217B09F101098945F4D3B2
:109DC000A37B002103F0FD03C4E901114FF6FF70EE
:109DD000BBF1000F6FF300034FF0FF0618BF03271E
:109DE000A3732080A07066732173019B002BB6D1F2
:109DF000B8F81030AB42B2D10122B8F8003001926D
:109E000050462E46A7E7FFF7A5FD0028C6D04FF025
:109E1000030BC5E7034C0021A9E7012208F110005C
:109E2000019294E708290020F82800200023FFF77A
:109E300001BD00BF1BB32DE9F047CC1F012C02D898
:109E4000541E012C02D90720BDE8F08782469846AF
:109E500091460F46FFF7FEFD06460028F3D04C4D15
:109E60002A88298A924571D08A4557D04FF6FF73C8
:109E70009A4278D0994204D01120BDE8F0870E2094
:109E80007047444C0123434903E00C46002BF3D1B7
:109E90000123A278FF2AF8D1A27B9207F5D1A2680C
:109EA000002AF2D1A4F800A0A770617BFF2916D088
:109EB0000026394884F80C9000F0BEFC38B309EB5A
:109EC000890213019BB29B08A8F8003088F8027041
:109ED000C8F804000EB1082F1BD00020B4E7494693
:109EE0002D4800F061FCFF2860730146E1D1A37B9F
:109EF000A07003F0FD0300226FF300034FF6FF7123
:109F0000A37321802273C4E9012211209CE703205E
:109F10009AE79B00063B8380002095E7012005F12E
:109F20001004DFF870C003E0644600289ED10120D1
:109F3000A378BB42F8D1A37B9B07F5D1A368002B84
:109F4000F2D1237B4B45B0D00F207DE78A4518D056
:109F5000AC78BC428AD1AB7B980787D1AB682C46E2
:109F6000002B83D1EDE791420ED0AB78FF2B83D14C
:109F7000AB7B990780D1AB68002B7FF47DAF044C9D
:109F800090E700202C46CCE7014C00237BE700BF84
:109F90000829002018290020F8280020F8B52A4AAE
:109FA0001488138A844204D0984237D0052630465C
:109FB000F8BD9C4245D093788B42F7D1937B9907AB
:109FC000F4D193681446002BF0D1606800BB0026E2
:109FD000237B5BB11D4F0025617B2944C9B2384604
:109FE00000F042FC237B01359D42F5D3A37B002288
:109FF00003F0FD03C4E901224FF6FF716FF3000384
:10A00000FF206073A3732180A17022733046F8BDD6
:10A01000FFF7A0FC0028DAD00326D9E702F11004EC
:10A0200001230B4803E00446002BBFD10123A27893
:10A030008A42F8D1A27B9207F5D1A268002AF2D118
:10A04000C3E714460023ECE708290020F828002085
:10A0500018290020CB1F012B01D90720704770B5AC
:10A06000284A1488138A844282B004D0984233D09C
:10A07000052002B070BD9C4241D093788B42F7D14D
:10A08000937B9807F4D193681446002BF0D1656850
:10A0900015B1002002B070BD0E461B48617B00F078
:10A0A000CBFB00958DF80260A0B1237B019003EB00
:10A0B00083039B00082EADF8003005BF8388093369
:10A0C00014239B08211D6846ADF80030FFF72AFCD9
:10A0D0000928CED10320CCE702F1100401230B485C
:10A0E00003E00446002BC3D10123A2788A42F8D1B1
:10A0F000A27B9207F5D1A268002AF2D1C7E71446E5
:10A100000023ECE708290020F82800201829002067
:10A11000CB1F012B01D90720704730B4164C25887E
:10A12000238A854204D0984212D0052030BC704763
:10A130009D421FD0A3788B42F7D1A37B9D07F4D11A
:10A14000A368002BF1D12280204630BCFFF788BCE9
:10A1500010340123094D03E02C46002BE5D10123E7
:10A16000A0788842F8D1A07B8007F5D1A0680028AC
:10A17000F2D1E8E70023EDE70829002018290020A4
:10A18000FFF76ABCFFF76ABC10B5148882B002AB57
:10A19000A40043F8044DFFF74DFB02B010BD00BF13
:10A1A00013460022FFF7E6BB10B5094C40222046BB
:10A1B000002109F0E3F820464FF4807100F06CFBB9
:10A1C00004F120004FF48071BDE8104000F064BB42
:10A1D0002C2900204FF6FF73984210B509D0FF28B4
:10A1E00004460ED80146084800F05EFB48B1204600
:10A1F00010BD4FF48071044800F0A0FBB0F5807FE3
:10A20000F6D14FF6FF7010BD2C29002008B54FF68F
:10A21000FF73984207D0FF2805D80146034800F095
:10A2200043FB00B108BD002008BD00BF4C29002041
:10A23000FF2800D9704710B501460446044800F0D5
:10A240005DFB21460348BDE8104000F057BB00BF4E
:10A250002C2900204C290020FF2801D9002070471C
:10A260000146014800F0A6BB2C2900204FF6FF73E1
:10A27000984270B52CD0013084B2FF2C24D8154DF3
:10A2800003E09CB2B4F5807F1ED02146284600F042
:10A2900091FB631C0028F4D00F4EA6F12005214647
:10A2A000304600F087FB88B10134A4B2B4F5807F5A
:10A2B0000AD02146284600F07DFB631C0028EED121
:10A2C0009CB2B4F5807FF4D14FF6FF74204670BD88
:10A2D0000024D4E72C2900204C29002038B54FF663
:10A2E000FF73984216D0013084B2FF2C0ED80A4D6D
:10A2F00003E09CB2B4F5807F08D02146284600F0E8
:10A3000059FB631C0028F4D0204638BD4FF6FF747B
:10A31000204638BD0024EAE74C290020074B1A7874
:10A3200002B9704710B50446FEF740FE204601F022
:10A3300059FB2046BDE81040FEF7BCBC8229002036
:10A340002DE9F041244B1F7884B027B9234B1F70AF
:10A3500004B0BDE8F0814FF6FF70FFF711FF012157
:10A36000002501ABADF8081002AA062104460195AC
:10A37000ADF80A500393FFF707FF0728E6D02E46F3
:10A380004FF6FF7870B9019B9D4220469CBFA046C6
:10A390001D46FFF7F5FE02AA06210446FFF7F4FE6C
:10A3A0000028F0D0052802D101960023ECE74FF6F3
:10A3B000FF739C4209D10A4B0A4A1D60074BA2F861
:10A3C00000801F7004B0BDE8F081044B00271F70AF
:10A3D00004B0BDE8F08100BF82290020842900205C
:10A3E0006C290020802900202DE9F043054687B024
:10A3F0008088FFF7B1F82B786880083B032B19D8C9
:10A40000DFE803F0685702285F4C237843B14FF62A
:10A41000FF70FFF7B5FE4FF6FF739842064677D000
:10A420005A4B1B7833B15A4BAA881B889A4201D1E8
:10A43000FFF786FF574E33784BB1574F002457F83C
:10A44000243028469847337801349C42F7DB07B024
:10A45000BDE8F0834C4B1A78002AEBD000240DF1B4
:10A4600004084C4E1C7021461422404608F086FF1A
:10A47000AA68337803920D214FF0FF328DF8041053
:10A48000CDF80620002BE2D0434F57F82430284661
:10A490009847337801349C42F7DB002BD7D0002457
:10A4A00057F8243040469847337801349C42F7DB14
:10A4B000CDE76B7A002BBDD138490A68002AB9D0A4
:10A4C000E8688242B6D136480B600268EB60013A18
:10A4D0000260AFE76B7A93B930490A6812B1E86855
:10A4E00082420FD0294B1B78002BA3D0284BAA887F
:10A4F0001B889A429ED12B7A062B9BD198E7012B81
:10A5000098D1EFE7224AA8880B60EB60108091E7B2
:10A51000FFF738FEB04283D14FF000090DF1040877
:10A520001C4E84F8009049461422404608F026FF4D
:10A5300033780C214FF0FF328DF80410CDF806204F
:10A540009BB1154F57F8293028469847337809F1C1
:10A5500001099945F6DB43B1002457F82430404601
:10A560009847337801349C42F7DB084B1B78002B6B
:10A570003FF46DAF064AAB8812889A427FF467AF0A
:10A58000FFF7DEFE63E700BF70290020842900206A
:10A590008029002083290020742900208829002098
:10A5A0006C29002078B1F8B5074E337853B1074FC6
:10A5B0000546002457F8243028469847337801345C
:10A5C0009C42F7DBF8BD70478329002074290020E6
:10A5D000F8B5074E337853B1064F0546002457F8B7
:10A5E000243028469847337801349C42F7DBF8BD85
:10A5F0008329002074290020F8B5074E337853B121
:10A60000064F0546002457F82430284698473378EB
:10A6100001349C42F7DBF8BD832900207429002017
:10A6200038B5FFF7D1F8E8B9FFF738FBD0B901F03A
:10A6300087F9B8B900F0DCF9A0B9FEF70DFB88B9CD
:10A64000FEF7D6FB70B9FEF78BFE58B9064A0749EC
:10A65000074B084C106001224FF6FF7508701A7006
:10A66000258038BD032038BD88290020842900209A
:10A6700082290020802900200A4B1B787BB10A4ADE
:10A680001378022B09D810B4591C084C117044F8E7
:10A69000230000205DF8044B704704207047082019
:10A6A000704700BF822900208329002074290020E0
:10A6B000034B1B780BB101F0A5B90820704700BF10
:10A6C0008229002009B101F0E1B97047F0B5224EAE
:10A6D000337887B0002B3BD0204D01234FF6FF701D
:10A6E0002B70FFF74DFD4FF6FF77B842044628D197
:10A6F00000241B4E2C702146142201A808F03EFEB7
:10A7000033780C214FF0FF328DF80410CDF806207D
:10A7100043B1144D55F8243001A8984733780134DB
:10A720009C42F7DB0025284607B0F0BD2046FEF727
:10A730004DFF054640B92046FFF722FDB8420446CA
:10A74000F1D03378002BF1D10325284607B0F0BDB6
:10A750000825284607B0F0BD822900207029002076
:10A76000832900207429002038B5059CD0B1C9B1D7
:10A77000C3B1069D05FB04F5954213D8049DE21D67
:10A78000B5EBD20F0ED36CB1069A5AB10246C2E9AC
:10A7900000131846069B9460D360A1B200F07CF8C9
:10A7A000002038BD072038BDF8B5002840D0036828
:10A7B0000646002B3CD04068002839D0B368002BF7
:10A7C00036D00F460025FF240DE0FF2C19BF2B1BB0
:10A7D000013301232C469F422BD00135B368EDB2E3
:10A7E0009D4225D27068294600F05EF80028ECD121
:10A7F000FF2C16D0AC4214D2A4B2336863B1706897
:10A80000E3B248B1FF2B214606D000F0D3F818B1CF
:10A810002146706800F072F80134A4B2E3B2AB4292
:10A82000EBD30135B368EDB29D424FF0FF04D9D3AD
:10A83000FF242046F8BD00BF98B138B5036873B156
:10A84000436863B1FF290AD0054618460C4600F05C
:10A85000B1F820B1E968286801FB040038BD002088
:10A8600038BD0020704700BF70B138B5036853B1E0
:10A87000436843B1FF2906D08DB2044629461846E5
:10A8800000F098F808B938BD704729466068BDE8FF
:10A89000384000F033B800BF20B1CA1DD2080021F3
:10A8A00008F06CBD704700BF2DE9F04182B058B18F
:10A8B000CF0801F007044FF0010808FA04F4C35D63
:10A8C000E4B214EA030604D00026304602B0BDE824
:10A8D000F081054602A800F8016D05F04DFDEB5D25
:10A8E0001C4202D11C43EC5546469DF8070005F07A
:10A8F00079FD304602B0BDE8F08100BFE8B170B527
:10A90000C1F3C706012501F00701835D8D402B428D
:10A9100082B001D102B070BD044602A8002300F845
:10A92000013D05F029FDA15D9DF8070021EA050123
:10A93000A15505F057FD02B070BD70472DE9F047F5
:10A94000884682B028B321B3074600254FF001099D
:10A9500003E00135ADB2A8451BD0EE0805F00704B1
:10A9600009FA04F4BB5DE4B2234007EB060AF0D118
:10A970000DF107008DF8073005F0FEFCBB5D1C42B1
:10A980000CD001359DF80700ADB205F02BFDA845B0
:10A99000E3D14546284602B0BDE8F0871C439DF848
:10A9A00007008AF8004005F01DFD284602B0BDE80A
:10A9B000F08700BF58B1CB0801F00701C25C01234A
:10A9C00003FA01F10A4214BF184600207047012023
:10A9D000704700BF7EDF70477FDF704786DF7047BC
:10A9E000024B0A781978FDF7CDBC00BF2622002063
:10A9F0002DE9F0411F4C2378182B37D01E4D2B78B2
:10AA0000182B2FD01D4E3378182B27D01C4F3B7896
:10AA1000182B1FD0DFF86C8098F80000182814D08D
:10AA20002378182B0ED02B78182B0BD03378182BBB
:10AA300008D03B78182B05D0182814BF002003201D
:10AA4000BDE8F0810320BDE8F081FDF775FC88F8D2
:10AA50000000E5E7FDF770FC3870DBE7FDF76CFC04
:10AA60003070D3E7FDF768FC2870CBE7FDF764FC96
:10AA70002070C3E7272200202A220020282200205D
:10AA800029220020262200202DE9F04F91B0934684
:10AA900005460E46FDF71EFCDFF8A881044698F82F
:10AAA00000102846FDF752FC2022814600210DEBC4
:10AAB000020008F063FC012C33D0FCB126B33378DC
:10AAC000DB074DD45D4BCDF82CB00F934FF6FF7ADA
:10AAD000012C4FF000041AD108AB3246214628461B
:10AAE000FFF77AFF074647B3B9F1000F08D0504689
:10AAF000FEF76CFD384611B0BDE8F08F43F2020757
:10AB0000384611B0BDE8F08F85244FF6FF7A08ABC8
:10AB1000002221462846FFF75FFF0746002FE3D1BA
:10AB20000BE0474B002219782846FDF72BFC002E3E
:10AB3000C5D185244FF6FF7ACEE7002CD4D1B9F1E8
:10AB4000000FDDD098F8001001222846FDF71AFC0E
:10AB500028465146FEF71CFD384611B0BDE8F08F7F
:10AB60002846FEF717FC4FF6FF73984282460746C9
:10AB700031D0012C3CD003AB012207215046FFF716
:10AB800059F911280746AFD068BB014650220498F6
:10AB900008F0F4FB049A294B14700499CDF82CB0FA
:10ABA00001F1340001F118074A1C089011312846C0
:10ABB000CDE90C720F93FEF70DFCA0B907215046AA
:10ABC000FFF748FA052807460DD0002880D0B9F1D4
:10ABD000000F95D08BE7FFF79BF8B842824602D072
:10ABE0004FF00109C7E70327B9F1000F88D07EE7CE
:10ABF000134F28463978FDF7A9FB03AB0028BBD1DA
:10AC0000014614221846019308F0B8FB0422284696
:10AC10008DF80C20ADF80E50FEF7BCFB019BADF893
:10AC20001000184600F0DEFC39782846FDF78EFB50
:10AC3000019B0028A0D185244EE700BF8C2900206D
:10AC4000262200202922002038B50C460546FDF7B3
:10AC500041FB012808D12CB121462846BDE83840E7
:10AC6000FFF7B8BE204638BD43F2020038BD00BF32
:10AC70002DE9F0470388113B88B00446092B7CD8A6
:10AC8000DFE813F00A007B00A500C6007B007B0014
:10AC90007B007B001E017E00037A8488CB4F3D2B16
:10ACA000204641F23D03397814BF4FF488551D46C4
:10ACB000FDF74CFB002860D0C54B20461978FDF706
:10ACC00045FB0346002800F0E7812046FEF762FBC3
:10ACD000C04B064619782046FDF738FBBE4B0028CE
:10ACE000197820460CBF4FF002094FF00109FDF71B
:10ACF0002DFB8046002840F0B5824FF6FF739E4240
:10AD000000F0A98230460721FFF748F9002800F03B
:10AD1000A282052803AE13D0059007232046CDF864
:10AD20000C80CDF81080ADF80E40CDE906888DF886
:10AD30000C30FEF72FFBADF81000304600F052FC4F
:10AD40000023C6E901330393C6E903331A460323FC
:10AD50003978ADF80E4020468DF81490ADF81650B5
:10AD60008DF80C30FDF70EFBBDF80E00FEF712FB60
:10AD7000ADF81000304600F035FC08B0BDE8F087B3
:10AD8000934B80881978FDF7E1FA05460028F4D145
:10AD9000A088FDF7B9FA0346002800F098818B4B94
:10ADA000A08819782A46FDF7EDFAA088ADF80E00C4
:10ADB00002238DF814508DF815508DF80C30FEF7E5
:10ADC000E9FAADF8100003A800F00CFCD5E7808884
:10ADD000FDF780FA012800F0018103AE34F8042F5A
:10ADE00000230521104604340393B3607360ADF86B
:10ADF0000E20C6E903338DF80C100594FEF7CAFA4D
:10AE0000ADF81000304600F0EDFB08B0BDE8F0876B
:10AE100000F110094846FEF727FB4FF6FF739842F2
:10AE2000804600F015810146A088FEF7B1FBA58899
:10AE3000664F284639780122FDF7A4FA644B28466C
:10AE400019780022FDF79EFA624B284619780022F5
:10AE5000FDF798FA604B03AE197828460022FDF7FB
:10AE600091FA00230122284603937360C6E9023356
:10AE700033618DF80C20ADF80E50FEF78BFAADF86B
:10AE80001000304600F0AEFB4FF6FF7398454CD0F3
:10AE9000404601AA0721FEF7C9FF002845D1029DBF
:10AEA00095F84430DB0739D500231A4605F1340103
:10AEB000A088FFF793FD034600283FF45EAF3EE015
:10AEC00090F808808588B8F1000F4ED03F4F437A44
:10AED00039782846C3F30104FDF738FA00283FF417
:10AEE0004CAF3B4B28461978FDF730FA1FFA88F82B
:10AEF0000346002840F06381CDE905331A460493E8
:10AF00000793032303903978ADF80E502846ADF827
:10AF100016808DF818408DF80C30CCE0494605F1CC
:10AF20004600FEF77FFA0028BED100231A461946D4
:10AF3000A088FFF753FD0346002800F0DF80A188BA
:10AF40000022084607240392C6E90122C6E903222B
:10AF5000ADF80E1005938DF80C40FEF71BFAADF816
:10AF60001000304600F03EFB07E72846FEF712FAD5
:10AF7000164B0746197842462846FDF703FA637ACE
:10AF800013F0040669D1144B28461978FDF7DEF951
:10AF90008046002840F0618103AE637AADF80E5020
:10AFA00013F0040F0CBF02220122022328468DF861
:10AFB00015808DF814208DF80C30FEF7EBF9ADF804
:10AFC0001000304600F00EFBD7E600BF272200201D
:10AFD0002A2200202822002029220020237AA78864
:10AFE00013F00105C14B18BF0546197838464FF0DC
:10AFF000010214BFA8464FF00208FDF7C3F9BC4B8D
:10B00000384619780122FDF7BDF9BA4B2A4619785E
:10B010003846FDF7B7F9B84B03AE19783846002229
:10B02000FDF7B0F90023012238460393B360736043
:10B03000C6E90333ADF80E708DF814808DF80C203E
:10B04000FEF7A8F9ADF81000304600F0CBFAC5E6DF
:10B05000A088FEF79FF98046E9E601AB01220721AF
:10B060003846FEF7E7FE814600285AD003AE072394
:10B0700005902846CDF80C80C6F80480ADF80E5037
:10B08000C6E903888DF80C30FEF784F9ADF810009E
:10B09000304600F0A7FA80E7CDE904331A46CDE93F
:10B0A0000633032303903978ADF80E402046ADF8FF
:10B0B00016508DF80C30FDF765F9BDF80E00FEF75F
:10B0C00069F9ADF8100003A800F08CFA55E6A288E3
:10B0D00086490390CDE905331046ADF80E200325CF
:10B0E0001A460493079341F20604012309788DF868
:10B0F0000C50ADF816408DF81830DCE7A4880393A7
:10B10000C6E9013320461A46ADF80E40C6E90333BE
:10B11000032441F2060339788DF80C40ADF816305F
:10B1200020E64FF6FF710298FEF7FAF84FF6FF732C
:10B130009842824624D0DFF8C48101462846FEF7B3
:10B1400027FA98F800102846FDF700F903AE00280A
:10B1500000F09480524607213846FEF7D9FF4FF0A1
:10B160000108002840F0AA80634B28461978FDF7B3
:10B17000EDF800283FF411AF3846FEF727FA0CE748
:10B180003A4638460721FEF7C3FF002800F09280B8
:10B1900003AE072305902846CDF80C90C6F804901E
:10B1A000ADF80E50C6E903998DF80C30FEF7F2F8B1
:10B1B000ADF810003046C84600F014FAEDE6284617
:10B1C000FEF7E8F84B4B064619782846FDF7BEF81F
:10B1D000494B0028197828460CBF4FF0020A4FF05F
:10B1E000010AFDF7B3F88146002842D14FF6FF73FC
:10B1F0009E423CD030460721FEF7D0FEB8B305286A
:10B2000003AE13D0059007232846CDF80C90CDF857
:10B210001090ADF80E50CDE906998DF80C30FEF780
:10B22000B9F8ADF81000304600F0DCF90023C6E9AB
:10B2300002330393736033611A4603233978ADF800
:10B240000E5028468DF814A0ADF816808DF81840E1
:10B250008DF80C3086E503AE72E53846FEF7B6F998
:10B26000B04699E63046FEF7B1F903AE68E503AEA5
:10B27000DCE73046FEF7AAF903AED7E70146142211
:10B28000304608F07BF8042328468DF80C30ADF8E2
:10B290000E50FEF77FF8ADF81000304600F0A2F92E
:10B2A00098F800102846FDF751F8804600287FF4F2
:10B2B00051AF59E74FF0010803AE6EE64FF00008BA
:10B2C0000723C6E9018805902846CDF80C80C6E919
:10B2D0000388ADF80E508DF80C30FEF75BF8ADF832
:10B2E0001000304600F07EF93EE700BF2722002024
:10B2F0002A220020282200202922002026220020A5
:10B30000F0B54F4B89B00024CDE904441B6803938A
:10B3100003AE054696E807006F4687E80700052359
:10B3200028468DF80C30ADF80E50FEF733F8ADF826
:10B3300010003046CDE90547FFF734F9414B00993D
:10B340001A682846FFF7A0FB862837D03E4B0746F1
:10B35000197822462846FDF715F83C4BA7F1110253
:10B36000B2FA82F2197852092846FDF70BF8384BE9
:10B37000224619782846FDF705F8364B22461978FB
:10B380002846FCF7FFFF37F0080301D109B0F0BDF4
:10B39000112FFBD02846C6E90044C6E902443461B7
:10B3A000ADF80E50009CFDF7F5FF0D2FADF8100025
:10B3B00030D0072305978DF80C3026E0224B012270
:10B3C00019782846FCF7DEFF204B224619782846DC
:10B3D000FCF7D8FF1E4B224619782846FCF7D2FF0F
:10B3E0001C4B224619782846FCF7CCFF28460394CC
:10B3F000C6E90144C6E90344ADF80E50FDF7CAFFA3
:10B400000623ADF810008DF80C303046FFF7CAF86F
:10B4100009B0F0BD03238DF80C307CB1237813F014
:10B42000010F0CBF02210121002241F201138DF80E
:10B4300014108DF81820ADF81630E6E70221F3E776
:10B44000D8290020CC290020302200202F220020E3
:10B450002E2200202D2200202DE9F0475B4FDFF83F
:10B460008081397888B00446FCF770FF98F80010A6
:10B4700082462046FCF76AFF064600283ED1544B20
:10B4800004901B6803930DF10C09059099E80700DF
:10B490006D46052385E8070020468DF80C30ADF891
:10B4A0000E40FDF777FFADF810004846CDE9056581
:10B4B000FFF778F8474BDDF800901B787BB35246D6
:10B4C00049462046FFF7C0FB86280546424B2BD055
:10B4D000197800222046FCF755FF404BA5F11102D8
:10B4E000B2FA82F2520919782046FCF74BFF112D6F
:10B4F00007D0002D4AD108B0BDE8F0874FF0000911
:10B50000DDE7324698F800102046FCF73BFF524634
:10B5100039782046FCF736FF08B0BDE8F0879DF883
:10B520000930002BCBD1E6E7197801222046FCF741
:10B5300029FF2A4B002219782046FCF723FF3246C8
:10B5400098F800102046FCF71DFF52463978204637
:10B55000FCF718FF00232046CDE90333CDE905337E
:10B56000ADF80E400793FDF715FF0D2DADF8100057
:10B5700013D0862D0EBF0623072305958DF80C30BA
:10B5800003A8FFF70FF808B0BDE8F087112DB2D07F
:10B59000082DDFD108B0BDE8F08703238DF80C300B
:10B5A000B9F1000F10D099F8003013F0010F0CBF63
:10B5B00002210121002241F201138DF814108DF8AF
:10B5C0001820ADF81630DBE70221F3E72B2200202C
:10B5D000D8290020D52900202E2200202D2200204D
:10B5E0002C2200202DE9F0410378052B88B0044679
:10B5F00045D0122B3DD1B04B45881E68002E00F07F
:10B600002C81AE4B017A1B7803F00102914205D8E0
:10B61000427AC3F340039A4240F28E80012700260B
:10B62000002231462846FFF70FFB86288046A44BB0
:10B6300000F0FB80197800222846FCF7A3FEA14BFE
:10B64000A8F11102B2FA82F2520919782846FCF7E1
:10B6500099FEB8F1110F40F094809B4B3A4619784F
:10B660002846FCF78FFE994B284619780022FCF7F4
:10B6700089FE2046FEF796FF08B0BDE8F0818E4AAD
:10B680004588126803920026CDE9046603AF97E867
:10B690000700D4F808808DF80C306C4684E8070069
:10B6A0002846ADF80E50FDF775FEADF8100038468F
:10B6B000CDE90584FEF776FF854B00991A68284688
:10B6C000FFF7E2F986280446824B00F0848019785F
:10B6D00032462846FCF756FE7F4BA4F11102B2FA1F
:10B6E00082F2197852092846FCF74CFE744B324618
:10B6F00019782846FCF746FE724B324619782846E0
:10B70000FCF740FE34F00803B6D0112CB4D0284624
:10B71000C7E90066C7E90266ADF80E503E61009DBC
:10B72000FDF738FE0D2CADF8100000F0AC800723BB
:10B7300005948DF80C3074E04FF00008CDE90488D2
:10B74000039603AF97E807006E4686E807000523D7
:10B7500028468DF80C30ADF80E50FDF71BFEADF805
:10B7600010003846CDE90586FEF71CFF5B4B009EB6
:10B770001B7823B99DF80930002B3FF47AAF0027DE
:10B780004EE7B8F1000F3FF474AFB8F1110F3FF47A
:10B7900070AFB8F1080F3FF46CAF03AF0023284639
:10B7A00003937B60ADF80E50C7E902333B61FDF7B0
:10B7B000F1FDB8F10D0FADF8100050D0B8F1860FC3
:10B7C0000EBF06230723CDF814808DF80C303846C1
:10B7D000FEF7E8FE4DE7197801222846FCF7D2FD76
:10B7E0003D4B324619782846FCF7CCFD344B3246A7
:10B7F00019782846FCF7C6FD324B324619782846A0
:10B80000FCF7C0FD28460396C7E90166C7E9036651
:10B81000ADF80E50FDF7BEFD0623ADF810008DF813
:10B820000C303846FEF7BEFE26E71978284601227E
:10B83000FCF7A8FD234B284619780022FCF7A2FD4F
:10B84000214B3A4619782846FCF79CFD1F4B0022F5
:10B8500019782846FCF796FD9FE70127E0E60323C9
:10B860008DF80C302EB3337813F0010F0CBF02218A
:10B870000121002241F201138DF814108DF81820D7
:10B88000ADF81630A3E703238DF80C307DB12B788B
:10B8900013F0010F0CBF02210121002241F201131C
:10B8A0008DF814108DF81820ADF81630B9E7022184
:10B8B000F3E70221DDE700BFD8290020D0290020CE
:10B8C0002E2200202D2200202C2200202B220020BE
:10B8D000CC290020302200202F220020D529002052
:10B8E00008B50378082B1DD30B2B0DD9132B19D1B9
:10B8F0000D4B0E4918780022FCF766FD0C4B0D49E4
:10B9000018780022FCF760FD0B4B084918780022DC
:10B91000FCF75AFD094B074918780022BDE808409A
:10B92000FCF752BD08BD00BF3022002001B3020069
:10B930002E22002059B402002F2200202D220020A8
:10B9400010B5224C2378182B15D0214C2378182BB6
:10B9500018D0204C2378182B1BD01F4C2378182B81
:10B960001ED01E4C2378182B21D01D4C2378182B69
:10B9700024D0002010BDFCF7DFFC2070144C23788D
:10B98000182BE6D1FCF7D8FC2070124C2378182B2A
:10B99000E3D1FCF7D1FC20700F4C2378182BE0D1B9
:10B9A000FCF7CAFC20700D4C2378182BDDD1FCF776
:10B9B000C3FC20700A4C2378182BDAD1FCF7BCFCAE
:10B9C0001828207008BF0320D3D110BD2D220020DD
:10B9D0002E2200202B2200202C2200202F220020AB
:10B9E0003022002008B5FFF743F9044B04491878CA
:10B9F0000022BDE80840FCF7E7BC00BF2D22002074
:10BA000059B402000346002833D0027802F08201C4
:10BA100080292CD0C2F30211042928D802F0F201A7
:10BA2000322924D041788078814220D806291ED935
:10BA300010281CD8D978480719D4187910F0040FA9
:10BA400015D10143080712D4D20701F003010CD528
:10BA500069B10B4A186810601B790A480A491371CA
:10BA6000012302600B70002070470029F1D00720ED
:10BA700070470449044A086001211170704700BFF3
:10BA8000D0290020D8290020D5290020FEF7A8BF02
:10BA900050E8002F0B4640E8003C9CF0000FF7D127
:10BAA0001046704750E8002F42EA010340E8003C8E
:10BAB0009CF0000FF6D11046704700BF50E8003FE1
:10BAC00043EA010240E8002C9CF0000FF6D110463A
:10BAD000704700BF50E8003F03EA010240E8002C35
