:1000000000000120011A0000291A00006107000009
:100010002D1A00002F1A0000311A00000000000005
:10002000000000000000000000000000331A000083
:10003000351A000000000000371A0000391A0000CD
:100040003B1A00003B1A0000BD1000001513000011
:10005000A11200003B1A0000B5020000F5100000DC
:100060003B1A00003B1A00003B1A00003B1A00003C
:100070003B1A00003B1A00003B1A00003B1A00002C
:100080003B1A0000910300003B1A00003B1A0000DD
:100090002D0400003B1A00003B1A00003B1A000030
:1000A0003B1A00003B1A00003B1A0000CD02000082
:1000B0003B1A00003B1A0000000000000000000096
:1000C0003B1A00003B1A00003B1A00003B1A0000DC
:1000D0003B1A00003B1A00003B1A00000000000021
:1000E0000000000000000000000000000000000010
:1000F0000000000000000000000000000000000000
:1001000000000000000000000000000000000000EF
:1001100000000000000000000000000000000000DF
:1001200000000000000000000000000000000000CF
:1001300000000000000000000000000000000000BF
:1001400000000000000000000000000000000000AF
:10015000000000000000000000000000000000009F
:10016000000000000000000000000000000000008F
:10017000000000000000000000000000000000007F
:10018000000000000000000000000000000000006F
:10019000000000000000000000000000000000005F
:1001A000000000000000000000000000000000004F
:1001B000000000000000000000000000000000003F
:1001C000000000000000000000000000000000002F
:1001D000000000000000000000000000000000001F
:1001E000000000000000000000000000000000000F
:1001F00000000000000000000000000000000000FF
:1002000010B5054C237833B9044B13B10448AFF350
:1002100000800123237010BD7C0800200000000036
:10022000D83C000008B5034B1BB103490348AFF3AA
:10023000008008BD0000000080080020D83C0000BD
:10024000154B002B08BF134B9D46A3F5803A0021A8
:100250008B460F461348144A121A01F0BDFC0F4B8F
:10026000002B00D098470E4B002B00D09847002061
:10027000002104000D000D48002802D00C4801F0B8
:1002800099FE01F0EBFB2000290000F03DF801F0A1
:10029000D5FB00BF000008000000012000000000A6
:1002A000000000007C0800204C120020B51F000058
:1002B0003D220000044B0022C3F8002103F5A833BF
:1002C00001221A60704700BF006000400D4BD3F858
:1002D00040215AB10022C3F840214FF0A04208212A
:1002E000C2F80C1501225A60DA607047D3F8441145
:1002F00031B1C3F844214FF0A0430822C3F80825C8
:10030000704700BF00B001404FF0A0430020D3F879
:10031000142542F00802C3F81425D3F8042542F04E
:100320000802C3F80425124B124AC3F81025D3F86B
:10033000042342F00102C3F804230F4A4023136050
:100340000E4B0121C3F80405C3F808150921C3F8B1
:100350001015FF21C3F84015FA21C3F844154FF4D6
:100360004031C3F804134FF00063136030BF70478F
:10037000006000400102010000E100E000B0014027
:10038000024B4FF43C6043F001031847902E0000ED
:10039000F8B51F4B1F491B680025C1F84051C1F833
:1003A0004451C1F84851C1F84C51C1F80051C1F84D
:1003B00004514BB3D1F8044517490968641A24F075
:1003C0007F442F461A68A24209D8A41A15441A7C01
:1003D000DE691AB11F74D3E905209047AEB90F4BFF
:1003E0000F4A197813788B4205D10133DBB2022B07
:1003F00008BF0023137012780A4B43F822500A4BAF
:100400004FF48012C3F80021F8BD3346DAE700BF8D
:10041000B809002000100140B4090020B0090020F4
:10042000B1090020A809002000E100E02DE9F74F04
:100430009C4A9D49137809789C4D99423CD00133E0
:10044000DBB2022B08BF0023137099491278994B35
:100450000F6853F822003B1823F07F4300220B6003
:100460002B6816461446944613B942B12B6006E039
:10047000196881420ED902B12B60091A19604FF038
:1004800001082B68DFF834A200930027BEB9DFF81B
:1004900034B260E0401A0C44D968C3F800C0D3F805
:1004A0001CE031B13A1922F07F42C3E90121DE613B
:1004B0001E4601227346D7E70026B046E1E73446E0
:1004C000F6697B4A63681268DFF8FCC1A068991A74
:1004D00021F07F41614500F2A580014421600122A5
:1004E00022742A680023C4E90133E361002A40F042
:1004F000A2802C60CAE75A1C9BF80210D2B291422B
:100500008BF8002004BF00228BF80020182202FB89
:1005100003B32A6819799C68022974D003297ED014
:10052000012918D1217CB1B9DA6862601A69A26028
:100530005A699B69A361604BE2601B78002BC0D0B5
:100540006160BEE79C4200F090809946DB69002B19
:10055000F8D1002323749BF800309BF801209A42C5
:10056000C9D12B682FB9009A934202D1B8F1000F7C
:1005700043D0002B41D0D3F800A0504D4C4BD5F8C0
:1005800004751C68DFF844813E1B98F8003026F0A3
:100590007F4603369BB94FF48033C5F84433C5F822
:1005A0000433474B4FF400324FF00109C3F8802168
:1005B0001A60C5F80090FFF7E3FE88F80090B24596
:1005C0002CBF5444A41924F07F44C5F84045D5F805
:1005D0000435DB1B23F07F43E41B033324F07F440B
:1005E000A3420AD9D5F80435C5F84035FFF7C8FE4F
:1005F000334B4FF40032C3F800212F4B00221A7006
:1006000003B0BDE8F08F13469146A0E71174D2699C
:100610000123002AFAD1002B9DD02A609BE70023FA
:100620001946F6E7D31A23F07F43834234BFC31A37
:100630000023236053E721681368994213D8591A9D
:100640001160E26155E7091AD8691A4638B10346C4
:1006500018688842F7D3401A18601846134621607C
:10066000E061DC6112E71346F2E74C450DD1D36936
:100670002B6053B90E4801920121CAF8081003609B
:100680000D4B1970FFF77CFE019AE1692368C9F8E8
:100690001C1011B1086803440B602B689A4218BF04
:1006A000012756E7B0090020B1090020B809002051
:1006B000B4090020A8090020A4090020001001406E
:1006C00000E100E098080020FEFF7F00A50900205F
:1006D00072B6024A1368013313607047BC090020E8
:1006E000034A1368013B136003B962B6704700BF49
:1006F000BC090020EFF30583C3F308032BB9EFF324
:100700001480C04300F001007047012070470000D2
:1007100008B5FFF7EFFF012803D00449432000F09C
:10072000D1F8BDE80840FFF7D3BF00BF962E000008
:1007300008B5FFF7DFFF012803D00449512000F07E
:10074000C1F8BDE80840FFF7CBBF00BF962E000000
:10075000024B1B680021986801F088BA0400002051
:100760001EF0040F1CBFEFF309800AE0EFF30880CE
:100770000549064A884201D8904202D88D464FF07A
:100780000000034B184700000000012000E000209B
:10079000B9070000BFF34F8F0549064BCA6802F442
:1007A000E0621343CB60BFF34F8F00BFFDE700BF94
:1007B00000ED00E00400FA052DE9F347044600F0DF
:1007C0009FFB00F0E7F90028FBD1334D334E28881A
:1007D000A2693349B76A000440F0010000F052FBFF
:1007E0002888E36801930004A36800932D49D4E9A5
:1007F000002340F0010000F065FB2888E3690093C6
:100800000004D4E9042340F00100274900F04EFB26
:10081000F36A980706D528882449000440F00100AF
:1008200000F02CFBDFF89490DFF894A000264FF046
:10083000010808FA06F33B4209D059F8262032B1E4
:1008400028880004514640F0010000F01BFB0136EF
:100850001A2EEED1390608D52888104B14495A6B48
:10086000000440F0010000F00DFB3A0408D5288890
:100870000A4B10499A6B000440F0010000F002FBA3
:100880000D4B1B68DB0700D500BE2046FFF782FF3B
:1008900002B0BDE8F08700BF7408002000ED00E062
:1008A000EA2E0000FF2E0000342F00005C2F000015
:1008B000AB2F0000CB2F0000F0ED00E0E82F000090
:1008C000A02F000007B5ADF8000001916A46002195
:1008D00044F2020001F03AF803B05DF804FB50E87E
:1008E000002F0B4640E8003C9CF0000FF7D110466B
:1008F000704750E8003F43EA010240E8002C9CF0BA
:10090000000FF6D11046704750E8002F02EA0103AD
:1009100040E8003C9CF0000FF6D11046704750E8CC
:10092000003F03EB010240E8002C9CF0000FF6D1E1
:100930001046704750E8003FA3EB010240E8002C4E
:100940009CF0000FF6D1104670470121FFF7D1BF90
:100950000021FFF7D9BF000038B5044620B911497E
:100960004FF49270FFF7AEFF0020FFF7D1FE226830
:1009700063681168994213D9481E106011F8015C30
:10098000E368A18A01FB0535A36811791B1ADBB264
:10099000994200D213710020FFF7CAFE284638BDE5
:1009A0000025F8E71035000038B50C46054620B99B
:1009B0000E4940F24710FFF785FF24B90B494FF469
:1009C000A470FFF77FFF0020FFF7A2FE2A681368DC
:1009D000591C1160EA68A41AAA8AB4FBF2F41C70CC
:1009E0000020BDE83840FFF7A3BE00BF103500006F
:1009F00008B5037813F0030F03F0040202D012B914
:100A0000104608BDDAB103F00303012B07D0022B17
:100A10000ED00E494FF4A470FFF754FF06E00A68A9
:100A200000880232C0F3831002440A600120E8E724
:100A30000B684288023303EB92130B60F6E70B68F6
:100A40004288013303EB92130288F4E75F3500001C
:100A50002DE9F04F484C87B00D460646871C002014
:100A60000092FFF755FE23682B60D4E9012313445D
:100A7000226801339B1A04F21C4804F5836B04F2CC
:100A80001449BB4219D3009A0023002A6CD00122DA
:100A900062F3010343F0040366F389132168A2683B
:100AA0000A4003320F44002044F822302760FFF749
:100AB0003FFE012007B0BDE8F08F01214046FFF75F
:100AC0002EFF5846FFF741FF0DF1180A4846FFF781
:100AD0003CFF60684AF8100DA5682840033004EB1D
:100AE00080005146FFF784FF02460298002AF4D1A5
:100AF00005EA000304EB8303811CDB6803930130E8
:100B0000054004EB850503F00303012B0291ED681A
:100B100023D0022B08D0194901924FF4C270FFF77D
:100B2000D1FE019A154607E0BDF80E309B0903334C
:100B30002D0C01EB930302934846FFF709FF08B120
:100B4000029B636029464046FFF7E9FED4E9012392
:100B50001344226801339B1A93E7BDF80C30C3F3AA
:100B600083132D0C0B44E6E7022262F3010343F0EA
:100B7000040366F39F5391E7900A00205F3500005D
:100B8000034BD3E90030C31A58425841704700BFA5
:100B9000900A00202DE9F04385B0FFF7F1FF0746EA
:100BA000002840F0F2807A4DC5F81804BFF34F8F4B
:100BB0006868AC680DF1100848F8100D204003304B
:100BC00005EB80004146FFF713FF009B0646002817
:100BD0005FD104EA0302991C013305EB8202234032
:100BE00005EB8303D268DB68029302F00303022B58
:100BF0000192009162D1BDF8063066484FEA931821
:100C0000B8F1500FC14628BF4FF0500969F38F1358
:100C100009F10801ADF8063000F0DEF907460028BA
:100C200000F0A18000F007FA334601A908223846F7
:100C300000F014FA009924EA01060136B600B14525
:100C400035D95FFA89F97EB3F6B2A9EB06092140DE
:100C500003315FFA89F4B1464F4E05EB8101082359
:100C60004A46384600F0FAF936B109F1080322463F
:100C70003146384600F0F2F9009B08F1030803EB17
:100C800098030093D5F81834002B4AD1D5F81044B6
:100C900058E02A689A4204D86A60384605B0BDE830
:100CA000F08304EA03008AE73B493446D7E7214052
:100CB000033108234A4605EB8101DAE7012B52D1C3
:100CC000BDF804303348C3F38311062928BF062139
:100CD00061F3891302318900ADF8043000F07CF92A
:100CE000074600283FD000F0A6F93346082201A9A4
:100CF000384600F0B3F9BDF80420C2F38312B31CE8
:100D000096424FEA8303BDD200994A1C2140033129
:100D1000009205EB81010422384600F09FF901366C
:100D2000E9E7384600F08BF9FFF72AFF80F0010071
:100D3000C7B2B2E7637A23B1236839461B682046FD
:100D400098476468002CF5D1384600F078F92046C1
:100D5000FFF7DEFCD5F818340BB9009B6B60002060
:100D6000FFF7E6FCE0E7D5F8104444B90B4B0C491B
:100D70001888000440F0020000F080F8D4E72368EF
:100D800020469B6898476468EFE7002785E700BF27
:100D9000900A00202C3D00009C0A00206C080020D6
:100DA000C23500002DE9F74F2F4C80460F46914683
:100DB00001A9012218469B46D4F808A0FFF748FE77
:100DC00000283DD0019D0026A91C5E4506EB0102CE
:100DD00040D100212548FFF782FD80F3100B244B02
:100DE000244A4FEA18499B1AB9EBD30F04D322497E
:100DF00040F2A910FFF766FD6B1C03EA0A0304EB3F
:100E0000830349EA0B42DA6005EA0A03033301214E
:100E100014F8232068F3C50204F8232034F82320B3
:100E200066F3891224F8232054F8232067F39F22C5
:100E300044F8232061F301026FF3820204F82320B7
:100E400094F820341BB1FFF7A5FE0028FBD103B0B6
:100E5000BDE8F08F0AEA020204EB820259F826305C
:100E6000D3600136B1E700BF900A0020AC0E00202D
:100E70002C3D0000DC3C00005F35000000231A46DA
:100E8000FFF790BF13B502AC012344F8042D2246AE
:100E9000FFF788FF02B010BD07B5CDE9002302239C
:100EA0006A46FFF77FFF03B05DF804FB1FB5CDE98D
:100EB0000123069B039301AA0323FFF773FF05B0E9
:100EC0005DF804FB1FB5CDE90023069B0293079B49
:100ED00003936A460423FFF765FF05B05DF804FB42
:100EE0007FB5CDE90123089B0393099B04930A9BDB
:100EF000059301AA0523FFF755FF07B05DF804FB32
:100F0000084A38B50123D2F8104482F820341D462F
:100F100004B938BD2368657220465B6898476468E9
:100F2000F6E700BF900A00202DE9F84FB0F806A0C0
:100F30009DF82890174603321C1D13444279B4FBD8
:100F4000FAF55344B3FBFAF3DBB29A4206468846FD
:100F50000AFB154403D21449BA20FFF7B3FC3DB98C
:100F6000AAEB040BBB4528BFBB4627B9BDE8F88FE9
:100F70003668013DF3E7043408EB050034445A4673
:100F8000B9F1000F0DD02146A7EB0B0700F08AFD49
:100F9000BA455D443668D3464FF0000428BFBB46CF
:100FA000E3E701462046EFE7F3350000F8B5467960
:100FB0000146721E0546002393422D6803D3002488
:100FC000A64202D8F8BD0133F6E70F682846FFF7BE
:100FD000EBFC01343946F3E72DE9F843868ACD1C52
:100FE0000746FFF7B9FC043E35440446B5FBF6F569
:100FF000F0B14FF48073EDB28380C680013D07608D
:1010000081464FF00008A84512D23846FFF7A4FCED
:10101000064648B163790133637108F10108C9F8E4
:10102000000007608146EEE72046FFF7BFFF344629
:101030002046BDE8F88301210430FFF770BC10B5ED
:10104000012104460430FFF775FC10F0FF0F04D1B6
:101050002046BDE81040FFF7A9BF10BD13B500241E
:101060000094FFF761FF02B010BD00000D4930B5DC
:10107000A1F58C720225914201D800200EE08B1A56
:10108000DB1093FBF5F302EBC30452F833308342D9
:1010900005D802D204F10802EDE7606830BD2146B0
:1010A000E9E700BF7C37000008B5FFF7DFFF024B20
:1010B000002808BF184608BD4F36000010B5054C83
:1010C00022681AB904495120FFF7FCFB2368BDE8E8
:1010D00010401847B40E00200D3B000000F1804086
:1010E00000F5E040002382B0036003680193019B98
:1010F00002B07047F0B5514B514C1B6885B0DBB165
:101100004FF4827094F82E20FFF7E8FF12B194F8A4
:101110002F30A3B1636802932389ADF80C30E368E4
:1011200000218DF80410002B44D12374236801A8FA
:101130009847002384F82F3094F82E3003B3414BA6
:101140001B68EBB14FF48070FFF7C8FF94F82D20B7
:10115000638B91B28B4238D95B1A21899BB263832E
:10116000CB1A616801EB4301374BC3F82C16C3F867
:1011700030264FF48270FFF7B1FF344B01221A6022
:10118000334B1B685BB14FF48870FFF7A7FF002358
:1011900004A82374022300F80C3D236898472D4BC4
:1011A0001B6813B34FF48A70FFF798FF0023237472
:1011B00005B0F0BD208B608363602081E160002A70
:1011C000B4D1214B01221A60B0E7D2D1E3680121EA
:1011D00084F82F103BB1002161831B49C1F82C36E4
:1011E000C1F83026C5E76383C3E766694FF000475F
:1011F0000125002EDCD0B6FA86F227FA02F3463239
:10120000920026EA030602F1804303F5E0431B68DF
:10121000002BEED01046FFF761FFA2F58C72D308C9
:1012200082F00402C2F380028DF808308DF8045079
:101230008DF80920236801A89847DAE70471004077
:10124000BC0E00200071004000700040047000409F
:101250001071004014710040024940F2C710FFF7BE
:1012600031BB00BFB03B00001F2810B5044601D9B8
:10127000FFF7F2FF012303FA04F44FF0A043C3F891
:101280000C4510BD1F2810B5044601D9FFF7E4FF37
:10129000012303FA04F44FF0A043C3F8084510BD3E
:1012A0004FF0402313B5D3F818310BB3114B124C48
:1012B00000221A601B680193019B236823B90F4920
:1012C00040F28E20FFF7FEFAE07FFF2803D0A37FD5
:1012D0005BB1FFF7C9FF002363772372D4E90031C4
:1012E000074802B0BDE810401847FFF7CBFFF2E710
:1012F00002B010BD18410040EC0E0020653B00001C
:10130000F40E00200023435082B043580193019B08
:1013100002B07047F0B5504C236887B023B94F49ED
:1013200040F22D20FFF7CEFA4D4AD2F8243115466F
:10133000A3B14FF492711046FFF7E4FFD2F80431E5
:1013400063B9A368C2F808330223A360A368C2F894
:10135000043301231362536107B0F0BDD5F80431A3
:10136000002B49D03F4F3E484FF48271FFF7CAFF30
:101370000FCF01AE0FC63B68336094F82E307BB1BF
:10138000237B012B0CBFD5F83C25D5F84C250292C8
:10139000022B334B0CBFD3F83C35D3F84C350393B9
:1013A0004FF4B0712E48FFF7ADFF4FF4AE712C48EB
:1013B000FFF7A8FF94F8303013B194F82E303BB10A
:1013C000274B0022C3F80022A260274AC3F8082353
:1013D000234AD2F8C434C2F8C4349A0736D501235C
:1013E0008DF8003094F830300BB984F82F30D4E900
:1013F000003168469847AFE74FF4A4711848FFF7EB
:1014000081FF237B83B9174F0FCF01AE0FC63B6817
:10141000336094F83030002BDAD1C5F80032A36085
:10142000114BC5F80833D3E74FF40073C5F8003209
:1014300040F20223A36003F1CE73C5F80833A3681A
:10144000C5F804330123AB602B6285E713F0040376
:1014500018BF0223C4E700BF100F0020F73B0000B5
:10146000003000401C0F002002029C010369C1688B
:101470008B429DBF8268D21802F1FF3203F1FF3325
:1014800094BF501A581A70472DE9F041D0E902670D
:101490000446F61B4068964288461546384405D9EE
:1014A00000F000FB3D44E560BDE8F0813246AD1B35
:1014B00000F0F8FA2A4608EB0601606800F0F2FA3C
:1014C000F1E72DE9F843C5680646894617464FF00F
:1014D00000083469B3687068A54228BFE418013C6D
:1014E000621B5C1BBC4228BF3C46944228BF14468A
:1014F00049462844224600F0D5FAB3682544AB4259
:1015000008BF00253F1BA044A144F560E1D140463F
:10151000BDE8F88310B5114C114AA2610223C4E959
:101520000433104BE361A2644FF400730E4A23624C
:10153000E264002310220D49A362E01D6362E362AE
:10154000A3656365E365226500F058FC0849204601
:1015500000F054FC2023A37110BD00BFAC1100208B
:10156000523C0000540F0020440F00205B3C000060
:101570005F3C0000F8B5184C182300FB033503FB53
:1015800000402544C46A012C0F46164611D003D3EF
:10159000022C1BD000240AE02846FFF767FF864292
:1015A00005D8324639462846FFF76EFF34462046B6
:1015B000F8BD2846FFF75AFF8642344628BF044646
:1015C000224639462846FFF75FFFF0E72846BDE888
:1015D000F840FFF776BF00BFAC11002070B50B4B91
:1015E0001B7804460D4616460BB9FFF793FF002003
:1015F000FFF78EF8324629462046FFF7BBFF044628
:101600000020FFF795F8204670BD00BFAC11002008
:1016100010B511461C461A460020FFF7DFFF204692
:1016200010BD00000C4B1B78062B10D10B4B1B6818
:101630001A070CD10A4B186800F0F003302B08D0C1
:1016400000F0E000A0F140035842584170470020EC
:1016500070470120704700BFE00F00F0E40F00F07A
:10166000E80F00F0094B1B78062B0CD1084B1B68C8
:101670001A0708D1074B186800F0F000A0F13003FA
:101680005842584170470020704700BFE00F00F0FB
:10169000E40F00F0E80F00F008B5FFF7C3FF28B132
:1016A0007D4B7E4A1B68C3F304231360FFF7DAFF08
:1016B00010B17B4B7B4A1A60FFF7B4FF28B17A4B1D
:1016C0007A4A1B68C3F342331360FFF7CBFF20B1A4
:1016D000774AD36823F08073D360FFF7A3FF40B14C
:1016E0004FF080430022C3F80C21C3F81021C3F847
:1016F0003825FFF7B7FF10B16E4B03221A60FFF7D2
:10170000B1FF40B16C4B05221A6001229A6700229A
:101710009A603F225A60694B1B78062B50D1684B68
:101720001B6819074CD1674B1B6803F0F003502B63
:1017300046D14FF08052644BD2F80414C3F8201500
:10174000D2F80814C3F82415D2F80C14C3F82815DD
:10175000D2F81014C3F82C15D2F81414C3F83015AD
:10176000D2F81814C3F83415D2F81C14C3F8401575
:10177000D2F82014C3F84415D2F82414C3F848153D
:10178000D2F82814C3F84C15D2F82C14C3F850150D
:10179000D2F83014C3F85415D2F83414C3F86015D5
:1017A000D2F83814C3F86415D2F83C14C3F868159D
:1017B000D2F84014C3F86C15D2F84424C3F870254D
:1017C000FFF730FF28B1414B414A1B6803F04F033C
:1017D0001360FFF727FF48B14FF08043D3F8002490
:1017E000D20744BF6FF00102C3F80024394B1B68D5
:1017F000062B08D1384B1B68062B01BF374A1368EC
:1018000043F480631360364AD2F8883043F470039F
:10181000C2F88830BFF34F8FBFF36F8F4FF01023A4
:10182000D3F80022002A03DBD3F80432002B2FDA8E
:101830002C4B0122C3F80425D3F80024002AFBD046
:101840004FF010221521C2F80012D3F80024002A0C
:10185000FBD04FF010231522C3F80422214B1A4667
:10186000D3F800140029FBD00021C3F80415D2F8E6
:101870000034002BFBD0BFF34F8F19491A4BCA68B5
:1018800002F4E0621343CB60BFF34F8F00BFFDE76C
:10189000164B174A1A6008BD24030010403501405A
:1018A00074C007400DF0ADBA440200103C05004082
:1018B000F0ED00E0A005004010560040E00F00F001
:1018C000E40F00F0E80F00F000C0004058020010E4
:1018D000E40E004030010010340100103C170040BD
:1018E00000ED00E000E001400400FA0500000020E7
:1018F0000090D00382B001238DF807309DF80730A7
:10190000114B1860596044F2010188429A6012D06C
:1019100044F20201884206D1DA60DA6812889A61DC
:10192000DA685268DA6172B69DF80730002BFBD195
:1019300062B602B070471A611A6992685A611A69F0
:1019400012689A611A69ECE7541100202DE9F043FE
:10195000064685B00F46154672B6FFF7D1FAFFF777
:1019600019F90028FBD1DFF89480B8F8004044F260
:10197000010324049E4244F0010416D044F2020301
:101980009E422BD12B886A6817492046FFF784FABC
:10199000164B1B68DB0700D500BE2A463946304689
:1019A00005B0BDE8F043FFF7A5BFD5F8089048465D
:1019B000FFF77AFB2B68029701936B6800934A4606
:1019C00003460B492046FFF78BFAB8F80000094997
:1019D000000440F00100FFF751FAD9E73A46064902
:1019E0002046FFF74FFAD3E7663C0000F0ED00E039
:1019F000803C0000A63C0000BA3C00006C080020BF
:101A00000649074A074B9B1A03DD043BC858D050D0
:101A1000FBDCFFF741FEFEF713FC00004C3D00002D
:101A2000000000207C080020FEE7FEE7FEE7FEE75E
:101A3000FEE7FEE7FEE7FEE7FEE7FEE708B500216A
:101A4000044600F043FA044B1868C36B03B198478F
:101A5000204601F00FFA00BFD43C000070B50D4ED7
:101A60000D4D761BB61006D00024013455F8043B0A
:101A70009847A642F9D1094E094D761B01F0FCF9B1
:101A8000B61006D00024013455F8043B9847A6420E
:101A9000F9D170BD440800204408002050080020FF
:101AA00044080020844641EA000313F003036DD18B
:101AB000403A41D351F8043B40F8043B51F8043B11
:101AC00040F8043B51F8043B40F8043B51F8043B18
:101AD00040F8043B51F8043B40F8043B51F8043B08
:101AE00040F8043B51F8043B40F8043B51F8043BF8
:101AF00040F8043B51F8043B40F8043B51F8043BE8
:101B000040F8043B51F8043B40F8043B51F8043BD7
:101B100040F8043B51F8043B40F8043B51F8043BC7
:101B200040F8043B51F8043B40F8043B51F8043BB7
:101B300040F8043B403ABDD2303211D351F8043B57
:101B400040F8043B51F8043B40F8043B51F8043B97
:101B500040F8043B51F8043B40F8043B103AEDD206
:101B60000C3205D351F8043B40F8043B043AF9D257
:101B7000043208D0D2071CBF11F8013B00F8013B2A
:101B800001D30B8803806046704700BF082A13D337
:101B90008B078DD010F003038AD0C3F10403D21A4F
:101BA000DB071CBF11F8013B00F8013B80D331F883
:101BB000023B20F8023B7BE7043AD9D3013A11F803
:101BC000013B00F8013BF9D20B7803704B7843706E
:101BD0008B78837060467047F0B4860743D0541EFC
:101BE000002A3ED0CAB2034602E014F1FF3438D3D3
:101BF00003F8012B9D07F8D1032C2BD9CDB245EA70
:101C000005250F2C45EA054516D9A4F110073F0913
:101C100003F1200606EB071603F1100242E9045512
:101C200042E902551032B242F8D104F00F040137F4
:101C3000032C03EB07130DD91E462246043A032A50
:101C400046F8045BFAD8221F22F003020432134440
:101C500004F003042CB1C9B21C4403F8011B9C42DC
:101C6000FBD1F0BC704714460346C5E700290CBF02
:101C7000022200224FF4806300F000B82DE9F04307
:101C80005D4C256883B00446884616461F4615B14C
:101C9000AB6B002B7ED0022E05D0012E00F2A98066
:101CA000002FC0F2A680636EDA0735D5214628469C
:101CB00000F030FA216B41B104F14003994202D0A7
:101CC000284600F025FB00232363B4F90C300022E2
:101CD0001806A261626061D423F44A6323F003030F
:101CE000022EA3811FD10025616E002004F1430262
:101CF00043F00203A060C9074FF00100A3812260F6
:101D0000C4E9042004D49B0502D4A06D00F024FC97
:101D1000284603B0BDE8F083A3899B05C6D4A06D17
:101D200000F018FCC2E701AB6A462146284600F0E5
:101D300015FCA3891843A081002F36D1009F384697
:101D400000F03AFC8046002842D0A38943F080038B
:101D5000A381AB6B7BB3009AB4F90C30C4F800805C
:101D6000BA421CBF43F40063A381012E04BF43F0B9
:101D70000103A3819BB213F00802C4E904871ED1BA
:101D8000A260656E15F00105BDD00025284603B0A0
:101D9000BDE8F083284600F019FA7CE7216928465F
:101DA00000F0B6FAB4F90C3096E7B8F1000FC6D0DF
:101DB000AB6B002BCFD1284600F008FACBE7DA074F
:101DC00004D57F420022A761A260DAE7A760D8E7C6
:101DD000DDF80090B94504D1B4F90C304FF0FF356F
:101DE00082E7484600F0E8FB80460028F4D04F46E2
:101DF000ABE74FF0FF358BE70400002080EA0102DB
:101E0000844612F0030F4FD111F0030F32D14DF879
:101E1000044D11F0040F51F8043B0BD0A3F1013233
:101E20009A4312F0803F04BF4CF8043B51F8043B46
:101E300016D100BF51F8044BA3F101329A4312F0BE
:101E4000803FA4F101320BD14CF8043BA24312F0C5
:101E5000803F04BF51F8043B4CF8044BEAD02346C2
:101E60000CF8013B13F0FF0F4FEA3323F8D15DF874
:101E7000044B704711F0010F06D011F8012B0CF83C
:101E8000012B002A08BF704711F0020FBFD031F8B4
:101E9000022B12F0FF0F16BF2CF8022B8CF800203B
:101EA00012F47F4FB3D1704711F8012B0CF8012BBE
:101EB000002AF9D1704700BF024B13B1024800F06D
:101EC00079B87047000000003D2200002DE9F04F76
:101ED000354B85B00F460390186800F03BFB334B41
:101EE0001B68019303F5A4730293B946019BD3F8D1
:101EF00048613EB3DDF808A04FF001087468651E24
:101F00000FD4013406EB84040027B9F1000F20D070
:101F1000D4F800314B451CD0013D6B1CA4F10404E6
:101F2000F3D1234B73B1D6E90032002A34D1002B10
:101F300032D03046CAF8003000F046FBDAF80060D4
:101F4000002EDBD1184B186805B0BDE8F04F00F04B
:101F500003BB73682268013BAB420CBF756027600E
:101F6000002AD9D0D6F88811D6F804B008FA05F3BB
:101F70000B4208D1904773685B45B7D1DAF800305F
:101F8000B342C9D0B2E7D6F88C01D4F8801003422E
:101F900007D103989047EEE7B2461E46002EADD11A
:101FA000D0E708469047E6E730040020D43C000024
:101FB000C9250000002301461A46184600F012BE4B
:101FC000B1F90C309AB22DE9F0410C461107804668
:101FD00044D4626843F40063002AA38159DDA56AF2
:101FE000002D53D000229BB2D8F80060E169C8F8F8
:101FF000002013F4805240F0838001234046A8471C
:10200000421C4AD0A389A56AE1695B0705D56268CD
:10201000236B801A0BB1E36BC01A024600234046C3
:10202000A847471C45D0B4F90C302269226023F43C
:1020300000630022A381DB04626000D52065216B70
:10204000C8F8006011B304F14003994202D0404641
:1020500000F05EF900202063BDE8F0812669AEB192
:102060002568266092070CBF63690023AD1BA3603F
:102070000AE02B463246676AE1694046B8470028C5
:10208000A5EB000506442BDD002DF2DC0020BDE8A9
:10209000F081E26B002AA2DCF8E7D8F80030002BD0
:1020A000B0D01D2B01D0162B2CD1C8F80060002019
:1020B000EDE7D8F800101D291AD8154BB4F90C20FB
:1020C000CB40DB4313F0010314D1256922F40062F5
:1020D000C4E90053D504A281B1D50029AFD1ADE741
:1020E000A38943F04003A3814FF0FF30BDE8F081A6
:1020F000B4F90C2042F04002A2814FF0FF30C6E755
:10210000206D82E7A38943F04003A381BFE700BFAE
:102110000100402038B50D46044608B1836BA3B1D9
:10212000B5F90C00B8B16B6EDB0701D481051AD587
:1021300020462946FFF744FF6B6EDA07044602D4B7
:10214000AB899B050AD5204638BD00F03FF8B5F9AC
:102150000C000028E7D10446204638BDA86D00F0E9
:10216000FBF9204638BDA86D00F0F4F9E0E700BFA8
:1021700010B5002304468181C281C0E90033836029
:102180004366C0E904338361194608225C30FFF7D7
:1021900023FD07480749084A084BE362C4E90740A2
:1021A000C4E9091204F15800BDE8104000F0CEB9AE
:1021B0005D2B0000812B0000BD2B0000DD2B0000FB
:1021C000014900F099B900BFC92C000010B50446C0
:1021D000124800F0BFF9A26BD2B904F53B73104866
:1021E000C4F8E8320321C4F8E022E063C4F8E41242
:1021F00060680421FFF7BCFF01220921A068FFF7F6
:10220000B7FF02221221E068FFF7B2FF0123A363A8
:102210000248BDE8104000F09FB900BF3012002016
:10222000C1210000014800F095B900BF4412002010
:10223000014800F091B900BF4412002038B50A4CA3
:102240000A4D641BA4100AD004F18043013B05EB46
:102250008305013C55F804399847002CF9D1BDE8B5
:10226000384000F00FBE00BF540800205008002086
:10227000F8B5244F0C46064600F052FCBB685D687A
:10228000C4F57E610F3125F00305294421F47F61F7
:1022900021F00F01A1F58054B4F5805F07DB002128
:1022A000304600F049FCBB682B44984204D03046CD
:1022B00000F03CFC0020F8BD6142304600F03CFCE0
:1022C00001300DD0104BBA6819682D1B45F001057F
:1022D0003046091B5560196000F028FC0120F8BD4C
:1022E0000021304600F028FCBA68831A0F2BDEDD8F
:1022F000064C0549246843F00103001B5360086045
:10230000D5E700BF34040020741100203C080020F1
:10231000002953D0F8B50C46064600F001FC54F8ED
:1023200004CC714F2CF00101A4F108056B18B868BA
:102330005A68984222F0030253D01CF0010F5A60F1
:1023400003EB02003BD154F808CC4068A5EB0C0528
:1023500007F1080EAC687445614400F0010075D0C7
:10236000D5F80CC0C4F80CC0CCF8084060B341F0FC
:1023700001036B606950B1F5007F50D34B0A042B09
:1023800070D88B0903F13904E40003F138023819DD
:102390003B590838984278D05A6822F003028A42A2
:1023A00071D99B689842F7D1C368C5E902039D6063
:1023B000C5603046BDE8F84000F0B8BB70474068E3
:1023C00000F001000028D2D19868484C1144A04286
:1023D00041F0010262D0DB68C36098606A606950B6
:1023E000C9E71CF0010F0A4407D154F8083CED1A64
:1023F0001A44D5E90213CB6099603D4B1B6842F04B
:10240000010193426960BD6004D83A4B30461968B7
:10241000FFF72EFF3046BDE8F84000F087BBC90843
:1024200078684A1C012389108B40034307EBC201E3
:1024300057F832007B600839C5E9020147F832508D
:10244000C5603046BDE8F84000F070BB002845D1BB
:102450000A44D3E9021342F00100CB60996068603E
:10246000AA50D7E7142B08D9542B1ED80B0B03F115
:102470006F04E40003F16E0289E703F15C04E400F9
:1024800003F15B0283E718468EE793107968012217
:1024900002FA03F30B437B60034686E7C7E9045562
:1024A000C5E902006A606950B4E7B3F5AA7F06D8AF
:1024B000CB0B03F17804E40003F1770267E740F205
:1024C0005452934206D88B0C03F17D04E40003F1CF
:1024D0007C025CE74FF47E747E2258E741F00102F3
:1024E0006A60196096E700BF340400203C040020B5
:1024F00040080020A41100202DE9F84310F538779A
:102500001FD0884606464FF00009D7E90154013D27
:1025100011D4A389012B05F1FF352146304606D998
:10252000B4F90E30013302D0C04749EA00096B1CF0
:1025300004F16804EDD13F68002FE6D14846BDE8BC
:10254000F883B9464846BDE8F88300BF704700BF2E
:10255000704700BF704700BF704700BF70B50C46A2
:10256000B1F90E10002996B015461E460FDAA28961
:10257000002312F08000336004D14FF480632B609D
:1025800016B070BD402218462A6016B070BD6A466B
:1025900000F002FC0028EADB019B03F47043A3F582
:1025A0000053B3FA83F35B094FF480624FF4006089
:1025B00033602A6016B070BD024B0146186800F007
:1025C0000BB800BF04000020024B01461868FFF75B
:1025D0009FBE00BF040000202DE9F04F01F10B0564
:1025E000162D83B0064623D8102900F2B98000F0DA
:1025F00097FA102518230220C54F3B44A3F1080287
:102600005C68944200F06681636823F0030323440E
:10261000D4E902515A68E96042F001028D60304607
:102620005A6000F083FA0834204603B0BDE8F08F0A
:1026300035F0070500F19480A94200F2918000F086
:102640006FFAB5F5FC7FC0F083816B0A00F08F80D4
:10265000042B00F24681AB0903F1390003F1380C79
:10266000C300AB4F3B44A3F108015C68A14206D113
:102670000CE0002A80F21D81E468A14206D0636864
:1026800023F003035A1B0F2AF3DD60463C69DFF891
:1026900094C2644571D0636823F003035A1B0F2A68
:1026A00000F34481002AC7E904CC80F22681B3F507
:1026B000007F80F06981DB08591C7A6857F8318007
:1026C000C4F808804FF0010E9B100EFA03F307EBDD
:1026D000C10E1343AEF10802E2607B6047F831405F
:1026E000C8F80C408210012494409C424BD81C42F4
:1026F00006D120F0030064001C4200F10400FAD06F
:1027000007EBC009CE468046DEF80C309E4507D167
:1027100022E1002A80F22981DB689E4500F01C81BD
:10272000596821F003014A1B0F2AF2DDD3E9028E1A
:102730005C1945F001055D6042F00105C8F80CE048
:102740003046CEF80880C7E90444C4E902CC65608D
:102750005A50019300F0EAF9019B03F1080463E782
:1027600000240C232046336003B0BDE8F08F4FF403
:10277000007340204FF03F0C73E77B688210012408
:1027800094409C42B3D9BC68636823F00309A9450F
:1027900003D3A9EB05030F2B7BDC5E4BDFF888A18D
:1027A0001A68DAF80030013305EB020800F04881BE
:1027B00008F5805808F10F0828F47F6828F00F0802
:1027C0004146304600F0B8F9B0F1FF3F834600F0D3
:1027D000048104EB0900584500F2FD804E4A13685D
:1027E0004344136000F04D81DAF8001001311BBF43
:1027F000ABEB00001B18CAF800B013601BF0070316
:1028000000F03481C3F10801C3F580538B440833D1
:10281000D844C8F30B08A3EB0808414630460192A0
:1028200000F08AF9431C019A00F04681A0EB0B01ED
:10283000414441F001011368C7F808B04344BC4269
:10284000CBF80410136015D0B9F10F0F40F23081AE
:102850006068A9F10C0121F0070100F0010004EB10
:10286000010C08434FF0050E0F296060CCE901EE22
:1028700000F23A81294A2A481168BC688B420168F3
:1028800088BF136062688B4222F0030288BF036036
:10289000A7E0621943F0010345F001056560304689
:1028A000BA60536000F042F90834204603B0BDE836
:1028B000F08F2344E1685A68A56842F00102E9609C
:1028C00030468D605A6000F031F90834204603B07C
:1028D000BDE8F08FDC68A34208BF02303FF4D6AEFB
:1028E00092E6142B71D9542B00F2AD802B0B03F11F
:1028F0006F0003F16E0CC300B3E6234430465A6800
:1029000042F001025A60083400F010F98CE600BF72
:1029100034040020A4110020741100209C11002018
:10292000A01100203C0400203C080020611945F063
:10293000010E42F00105C4F804E03046C7E9041175
:10294000C1E902CC4D60E25000F0F0F808346BE6CB
:10295000E80805F108034FE608F1010818F0030F35
:102960000EF1080E7FF4D0AE52E019441C464A68BE
:10297000DB6854F8085F42F001024A603046EB60C1
:102980009D6000F0D3F84FE65A0A042A35D9142A7C
:102990006FD802F15C01C9005B3207EB010E795878
:1029A000AEF1080E8E4558D04A6822F003029A42D2
:1029B00002D989688E45F7D1D1F80CE07B68C4E96B
:1029C000021ECEF80840CC608CE603F15C0003F1F7
:1029D0005B0CC30045E6BC4272D0BC68626822F062
:1029E00003029542A2EB050302D80F2B3FF751AF2C
:1029F000304600F09BF8002416E69A0902F13901EE
:102A0000C9003832C9E7D9F80090994540F0838071
:102A100010F0030FA9F1080300F1FF30F3D17B6838
:102A200023EA04037B6064009C423FF6ACAE1CB911
:102A3000A9E6640008F104081C42FAD040465FE6AB
:102A400008F11008BCE6B3F5AA7F26D8EB0B03F11A
:102A5000780003F1770CC30003E67B6892104FF017
:102A6000010808FA02F213437B60A8E74FF4805391
:102A7000CEE6542A29D81A0B02F16F01C9006E3232
:102A80008BE7C0F30B0100297FF4AEAE09EB08021F
:102A9000B96842F001024A60ECE640F254529342B7
:102AA0001CD8AB0C03F17D0003F17C0CC300D8E50E
:102AB0000123CBF804309BE701214FF00008BAE670
:102AC000164A1368434413608EE6B2F5AA7F14D801
:102AD000DA0B02F17801C90077325EE74FF47E73BA
:102AE0007F204FF07E0CBCE504F1080130460192D6
:102AF000FFF70EFC019A1368BCE640F254518A427B
:102B000005D89A0C02F17D01C9007C3245E74FF4EB
:102B10007E717E2241E77B6885E700BF741100204B
:102B20000148FFF717BD00BF341200200148FFF72E
:102B300013BD00BF3412002038B5074C00230546F2
:102B40000846236000F088F9431C00D038BD236894
:102B5000002BFBD02B6038BD4812002010B50C466E
:102B6000B1F90E1000F042F9002803DB236D034495
:102B7000236510BDA38923F48053A38110BD00BF3A
:102B80002DE9F0411646B1F90C201F46D3050C463D
:102B90000546B1F90E1007D50022022300F010F906
:102BA000B4F90C20B4F90E1022F48052A2813B46F5
:102BB00032462846BDE8F041FEF72ABD10B50C4666
:102BC000B1F90E1000F0FCF8A389421C0EBF23F4EB
:102BD000805343F480532065A38110BDB1F90E10DA
:102BE00000F060B82DE9F8432B4D0646286898465A
:102BF0000F469146FFF7AEFC284B1C68D4F84831CD
:102C0000002B3DD05A681F2A0DDC02F1010C16BBC7
:102C10000232C3F804C0286843F82270FFF79CFC16
:102C20000020BDE8F8831E4B7BB34FF4C870FFF75C
:102C3000C3FC034648B3D4F848210021C0E9002171
:102C40004FF0010CC4F848010A46C0F88811C0F8DA
:102C50008C11002EDCD003EB82010124C1F8889096
:102C6000D3F8880194402043022EC3F88801C1F8AC
:102C70000881CDD1D3F88C110C43C3F88C41C7E740
:102C800004F5A673C4F84831BCE72868FFF764FC74
:102C90004FF0FF30C5E700BF30040020D43C0000F7
:102CA000B925000038B5074C0023054608462360C7
:102CB00000F0B2F8431C00D038BD2368002BFBD0D5
:102CC0002B6038BD4812002070B5002948D0054659
:102CD0000C4610B1836B002B48D0626EB4F90C30F7
:102CE000D00740D4990530D521462846FFF768F92A
:102CF000E36A064633B1E169284698470028B8BF21
:102D00004FF0FF36A3891A063CD4216B41B104F180
:102D10004003994202D02846FFF7FAFA00232363C2
:102D2000616C21B12846FFF7F3FA00236364FFF7D3
:102D300079FA636E0022DB07A2811FD5A06DFFF731
:102D400007FCFFF775FA304670BDA06DFFF702FC77
:102D5000B4F90C30002BC7D1666E16F0010616D000
:102D60000026304670BD002BFAD0BDE7FFF72EFAE3
:102D7000626EB4F90C30D007F5D4B3E7A06DFFF75D
:102D8000EBFBDBE721692846FFF7C2FABDE7A06D40
:102D9000FFF7E2FB304670BD38B50B46074C0546E1
:102DA000114618460023236000F03EF8431C00D073
:102DB00038BD2368002BFBD02B6038BD48120020A3
:102DC00070B50D46084C114606461A4628460023A3
:102DD000236000F031F8431C00D070BD2368002B45
:102DE000FBD0336070BD00BF4812002070B50D46A7
:102DF000084C114606461A4628460023236000F078
:102E000023F8431C00D070BD2368002BFBD0336037
:102E100070BD00BF48120020024B58221A604FF0CC
:102E2000FF30704748120020024B58221A604FF0C2
:102E3000FF30704748120020024B58221A604FF0B2
:102E4000FF30704748120020024B58221A604FF0A2
:102E5000FF30704748120020044A05491368002BD0
:102E600008BF0B461844106018467047A811002090
:102E700050120020FEE700BFF8B500BFF8BC08BC48
:102E80009E467047F8B500BFF8BC08BC9E46704728
:102E90000338FDD870472E2E2F2E2E2F6E726635DA
:102EA000782D626173652F2F73646B2F6E72663598
:102EB0005F73646B5F31352E302E302F636F6D7012
:102EC0006F6E656E74732F6C69627261726965737F
:102ED0002F7574696C2F6170705F7574696C5F70A9
:102EE0006C6174666F726D2E6300484152442046D7
:102EF00041554C54206174203078253038580020DA
:102F00002052303A20203078253038582020523155
:102F10003A2020307825303858202052323A20206C
:102F2000307825303858202052333A202030782508
:102F30003038580020205231323A2030782530384D
:102F40005820204C523A2020307825303858202004
:102F50005053523A20307825303858004361757309
:102F6000653A204275734661756C74206F6E2061FE
:102F700020766563746F72207461626C652072657F
:102F8000616420647572696E67206578636570742A
:102F9000696F6E2070726F63657373696E672E0060
:102FA00043617573653A2025732E004D656D4D6143
:102FB0006E616765204661756C742041646472655A
:102FC00073733A20307825303858004275732046A4
:102FD00061756C7420416464726573733A20307853
:102FE00025303858000000005030000090300000BC
:102FF00000000000E9300000323100007B310000A9
:103000000000000000000000C4310000DA310000C0
:1030100045320000B0320000F132000032330000CF
:103020000000000000000000503000007533000078
:10303000CE33000055340000000000000000000006
:10304000000000000000000089340000BB340000D4
:103050005468652070726F636573736F7220686166
:103060007320617474656D7074656420746F20657D
:1030700078656375746520616E20756E6465666938
:103080006E656420696E737472756374696F6E0027
:103090005468652070726F636573736F722061741A
:1030A00074656D707465642061206C6F6164206F5D
:1030B000722073746F72652061742061206C6F637D
:1030C0006174696F6E207468617420646F65732029
:1030D0006E6F74207065726D697420746865206FFE
:1030E0007065726174696F6E00556E737461636BA5
:1030F00020666F7220616E20657863657074696FF9
:103100006E2072657475726E2068617320636175DC
:10311000736564206F6E65206F72206D6F7265201D
:103120006163636573732076696F6C6174696F6E38
:103130007300537461636B696E6720666F72206100
:103140006E20657863657074696F6E20656E747249
:10315000792068617320636175736564206F6E65A3
:10316000206F72206D6F72652061636365737320D9
:1031700076696F6C6174696F6E730041204D656D87
:103180004D616E616765206661756C74206F636365
:10319000757272656420647572696E6720666C6F03
:1031A0006174696E672D706F696E74206C617A79D5
:1031B00020737461746520707265736572766174D2
:1031C000696F6E00496E737472756374696F6E20F7
:1031D000627573206572726F72004461746120625F
:1031E0007573206572726F72202850432076616C6F
:1031F000756520737461636B656420666F722074FB
:10320000686520657863657074696F6E2072657497
:1032100075726E20706F696E747320746F2074689D
:103220006520696E737472756374696F6E2074685B
:1032300061742063617573656420746865206661DC
:10324000756C742900446174612062757320657225
:10325000726F72202872657475726E206164647278
:1032600065737320696E2074686520737461636B85
:10327000206672616D65206973206E6F74207265BF
:103280006C6174656420746F2074686520696E7366
:103290007472756374696F6E207468617420636101
:1032A0007573656420746865206572726F72290099
:1032B000556E737461636B20666F7220616E20655A
:1032C0007863657074696F6E2072657475726E20B4
:1032D00068617320636175736564206F6E65206F2C
:1032E00072206D6F7265204275734661756C7473E0
:1032F00000537461636B696E6720666F7220616E44
:1033000020657863657074696F6E20656E7472797C
:103310002068617320636175736564206F6E65203A
:103320006F72206D6F7265204275734661756C74A3
:1033300073004120627573206661756C74206F6341
:1033400063757272656420647572696E6720666C5D
:103350006F6174696E672D706F696E74206C617A2D
:10336000792073746174652070726573657276611B
:1033700074696F6E005468652070726F6365737353
:103380006F722068617320617474656D7074656418
:1033900020746F206578656375746520616E20699F
:1033A0006E737472756374696F6E207468617420D3
:1033B0006D616B657320696C6C6567616C207573FA
:1033C00065206F662074686520455053520054682C
:1033D000652070726F636573736F7220686173200C
:1033E000617474656D7074656420616E20696C6CC5
:1033F0006567616C206C6F6164206F66204558437F
:103400005F52455455524E20746F207468652050A9
:10341000432C206173206120726573756C74206F7A
:103420006620616E20696E76616C696420636F6EE0
:10343000746578742C206F7220616E20696E7661DD
:103440006C6964204558435F52455455524E20766E
:10345000616C7565005468652070726F6365737385
:103460006F722068617320617474656D7074656437
:1034700020746F20616363657373206120636F70D4
:10348000726F636573736F72005468652070726F3A
:10349000636573736F7220686173206D616465206A
:1034A000616E20756E616C69676E6564206D656D17
:1034B0006F7279206163636573730054686520706F
:1034C000726F636573736F722068617320657865CE
:1034D000637574656420616E2053444956206F7291
:1034E000205544495620696E737472756374696F10
:1034F0006E207769746820612064697669736F72E1
:10350000206F66203000686172646661756C7400BB
:103510002E2E2F2E2E2F6E726635782D62617365DA
:103520002F2F73646B2F6E7266355F73646B5F3120
:10353000352E302E302F636F6D706F6E656E747325
:103540002F6C69627261726965732F62616C6C6F56
:10355000632F6E72665F62616C6C6F632E63002E08
:103560002E2F2E2E2F6E726635782D626173652F89
:103570002F73646B2F6E7266355F73646B5F3135CA
:103580002E302E302F636F6D706F6E656E74732FDB
:103590006C69627261726965732F657870657269B2
:1035A0006D656E74616C5F6C6F672F7372632F6EE5
:1035B00072665F6C6F675F66726F6E74656E642EA5
:1035C00063004261636B656E647320666C7573683B
:1035D0006564006170700062616C6C6F632E6C6F6B
:1035E000675F6D656D706F6F6C007077725F6D6790
:1035F0006D74002E2E2F2E2E2F6E726635782D6252
:103600006173652F2F73646B2F6E7266355F736401
:103610006B5F31352E302E302F636F6D706F6E659E
:103620006E74732F6C69627261726965732F65784D
:10363000706572696D656E74616C5F6D656D6F62EA
:103640006A2F6E72665F6D656D6F626A2E630055DC
:103650006E6B6E6F776E206572726F7220636F642F
:1036600065000000000000007C3700000100000041
:103670008837000002000000A637000003000000A9
:10368000C737000004000000DA3700000500000022
:10369000EB37000006000000FF37000007000000C5
:1036A00017380000080000002F3800000900000053
:1036B000473800000A000000603800000B000000DE
:1036C000783800000C0000008F3800000D0000006A
:1036D000A33800000E000000B53800000F00000005
:1036E000C438000010000000D838000011000000AD
:1036F000EF38000080000000FE380000810000006C
:103700001F390000820000003B39000083000000E8
:103710005739000084000000753900008500000062
:103720009639000086000000BB39000090000000C0
:10373000D239000091000000F03900009200000032
:103740000E3A000000820000233A000001820000CF
:10375000413A0000028200005D3A0000008400004F
:10376000793A0000018400009D3A000002840000C4
:10377000C73A000003840000EC3A00004E52465F56
:1037800053554343455353004E52465F4552524FA3
:10379000525F5356435F48414E444C45525F4D493A
:1037A0005353494E47004E52465F4552524F525F67
:1037B000534F46544445564943455F4E4F545F4529
:1037C0004E41424C4544004E52465F4552524F5284
:1037D0005F494E5445524E414C004E52465F455251
:1037E000524F525F4E4F5F4D454D004E52465F4522
:1037F00052524F525F4E4F545F464F554E44004E0B
:1038000052465F4552524F525F4E4F545F53555090
:10381000504F52544544004E52465F4552524F520B
:103820005F494E56414C49445F504152414D004E14
:1038300052465F4552524F525F494E56414C4944A1
:103840005F5354415445004E52465F4552524F52C9
:103850005F494E56414C49445F4C454E47544800E1
:103860004E52465F4552524F525F494E56414C4967
:10387000445F464C414753004E52465F4552524FBB
:10388000525F494E56414C49445F44415441004EB9
:1038900052465F4552524F525F444154415F534933
:1038A0005A45004E52465F4552524F525F54494D61
:1038B000454F5554004E52465F4552524F525F4E4F
:1038C000554C4C004E52465F4552524F525F464F48
:1038D0005242494444454E004E52465F4552524F73
:1038E000525F494E56414C49445F41444452004E58
:1038F00052465F4552524F525F42555359004E5205
:10390000465F4552524F525F4D4F44554C455F4EB6
:103910004F545F494E495449414C495A4544004E21
:1039200052465F4552524F525F4D555445585F497C
:103930004E49545F4641494C4544004E52465F450E
:1039400052524F525F4D555445585F4C4F434B5F59
:103950004641494C4544004E52465F4552524F52F3
:103960005F4D555445585F554E4C4F434B5F464154
:10397000494C4544004E52465F4552524F525F4DAE
:10398000555445585F434F4E445F494E49545F4636
:1039900041494C4544004E52465F4552524F525F9A
:1039A0004D4F44554C455F414C52454144595F4948
:1039B0004E495449414C495A4544004E52465F4590
:1039C00052524F525F53544F524147455F46554CF8
:1039D0004C004E52465F4552524F525F4150495F34
:1039E0004E4F545F494D504C454D454E5445440053
:1039F0004E52465F4552524F525F464541545552D2
:103A0000455F4E4F545F454E41424C4544004E5237
:103A1000465F4552524F525F494F5F50454E4449B1
:103A20004E47004E52465F4552524F525F445256E7
:103A30005F5457495F4552525F4F56455252554E5B
:103A4000004E52465F4552524F525F4452565F54A9
:103A500057495F4552525F414E41434B004E5246DB
:103A60005F4552524F525F4452565F5457495F452B
:103A700052525F444E41434B004E52465F455252B4
:103A80004F525F424C455F495053505F52585F5010
:103A90004B545F5452554E4341544544004E524698
:103AA0005F4552524F525F424C455F495053505F01
:103AB0004348414E4E454C5F414C52454144595F4D
:103AC000455849535453004E52465F4552524F5247
:103AD0005F424C455F495053505F4C494E4B5F44E9
:103AE0004953434F4E4E4543544544004E52465F62
:103AF0004552524F525F424C455F495053505F50C0
:103B00004545525F52454A4543544544002E2E2FA9
:103B10002E2E2F6E726635782D626173652F2F738E
:103B2000646B2F6E7266355F73646B5F31352E3058
:103B30002E302F6D6F64756C65732F6E7266782FE3
:103B4000647269766572732F7372632F7072732F4C
:103B50006E7266785F7072732E630050525300531A
:103B600041414443002E2E2F2E2E2F6E7266357843
:103B70002D626173652F2F73646B2F6E7266355FD4
:103B800073646B5F31352E302E302F6D6F64756C22
:103B900065732F6E7266782F647269766572732F03
:103BA0007372632F6E7266785F7370696D2E630037
:103BB0002E2E2F2E2E2F6E726635782D6261736534
:103BC0002F2F73646B2F6E7266355F73646B5F317A
:103BD000352E302E302F6D6F64756C65732F6E72BD
:103BE00066782F68616C2F6E72665F6770696F2EE2
:103BF00068005350494D002E2E2F2E2E2F6E7266C8
:103C000035782D626173652F2F73646B2F6E72662A
:103C1000355F73646B5F31352E302E302F6D6F64DE
:103C2000756C65732F6E7266782F64726976657233
:103C3000732F7372632F6E7266785F7477696D2E5F
:103C400063005457494D0055415254005541525458
:103C500045005465726D696E616C00525454005396
:103C6000454747455200415353455254494F4E2012
:103C70004641494C45442061742025733A2575001E
:103C80004552524F52202575205B25735D2061748B
:103C90002025733A25750D0A50432061743A20306F
:103CA000782530387800456E64206F662065727222
:103CB0006F72207265706F727400554E4B4E4F5785
:103CC0004E204641554C54206174203078253038C0
:0C3CD00058000000080000200000000068
:103CDC005B3B0000000000005F3B000000000000A8
:103CEC00F23B000000000000423C0000000000001D
:103CFC00473C0000000000004C3C000000000000AD
:103D0C00D335000000000303D7350000000000038A
:103D1C000635000000000303EA3500000000000037
:103D2C00C0090020880A0020900A0020C809002041
:083D3C007008002018000000CF
:083D4400FCC4FF7F0100000038
:103D4C000090D0030800002000000000F4020020C6
:103D5C005C030020C40300200000000000000000F1
:103D6C000000000000000000000000000000000047
:103D7C000000000000000000000000000000000037
:103D8C000000000000000000000000000000000027
:103D9C000000000000000000000000000000000017
:103DAC000000000000000000000000000000000007
:103DBC0000000000000000000000000000000000F7
:103DCC0000000000000000000000000000000000E7
:103DDC0000000000000000000000000000000000D7
:103DEC0000000000000000000000000000000000C7
:103DFC0001000000000000000E33CDAB34126DE664
:103E0C00ECDE05000B0000000000000000000000CC
:103E1C000000000000000000000000000000000096
:103E2C000000000000000000000000000000000086
:103E3C000000000000000000000000000000000076
:103E4C000000000000000000000000000000000066
:10417C002412002000000000000000003404002085
:10418C00340400203C0400203C04002044040020A3
:10419C00440400204C0400204C0400205404002053
:1041AC00540400205C0400205C0400206404002003
:1041BC00640400206C0400206C04002074040020B3
:1041CC00740400207C0400207C0400208404002063
:1041DC00840400208C0400208C0400209404002013
:1041EC00940400209C0400209C040020A4040020C3
:1041FC00A4040020AC040020AC040020B404002073
:10420C00B4040020BC040020BC040020C404002022
:10421C00C4040020CC040020CC040020D4040020D2
:10422C00D4040020DC040020DC040020E404002082
:10423C00E4040020EC040020EC040020F404002032
:10424C00F4040020FC040020FC04002004050020E1
:10425C00040500200C0500200C050020140500208E
:10426C00140500201C0500201C050020240500203E
:10427C00240500202C0500202C05002034050020EE
:10428C00340500203C0500203C050020440500209E
:10429C00440500204C0500204C050020540500204E
:1042AC00540500205C0500205C05002064050020FE
:1042BC00640500206C0500206C05002074050020AE
:1042CC00740500207C0500207C050020840500205E
:1042DC00840500208C0500208C050020940500200E
:1042EC00940500209C0500209C050020A4050020BE
:1042FC00A4050020AC050020AC050020B40500206E
:10430C00B4050020BC050020BC050020C40500201D
:10431C00C4050020CC050020CC050020D4050020CD
:10432C00D4050020DC050020DC050020E40500207D
:10433C00E4050020EC050020EC050020F40500202D
:10434C00F4050020FC050020FC05002004060020DC
:10435C00040600200C0600200C0600201406002089
:10436C00140600201C0600201C0600202406002039
:10437C00240600202C0600202C06002034060020E9
:10438C00340600203C0600203C0600204406002099
:10439C00440600204C0600204C0600205406002049
:1043AC00540600205C0600205C06002064060020F9
:1043BC00640600206C0600206C06002074060020A9
:1043CC00740600207C0600207C0600208406002059
:1043DC00840600208C0600208C0600209406002009
:1043EC00940600209C0600209C060020A4060020B9
:1043FC00A4060020AC060020AC060020B406002069
:10440C00B4060020BC060020BC060020C406002018
:10441C00C4060020CC060020CC060020D4060020C8
:10442C00D4060020DC060020DC060020E406002078
:10443C00E4060020EC060020EC060020F406002028
:10444C00F4060020FC060020FC06002004070020D7
:10445C00040700200C0700200C0700201407002084
:10446C00140700201C0700201C0700202407002034
:10447C00240700202C0700202C07002034070020E4
:10448C00340700203C0700203C0700204407002094
:10449C00440700204C0700204C0700205407002044
:1044AC00540700205C0700205C07002064070020F4
:1044BC00640700206C0700206C07002074070020A4
:1044CC00740700207C0700207C0700208407002054
:1044DC00840700208C0700208C0700209407002004
:1044EC00940700209C0700209C070020A4070020B4
:1044FC00A4070020AC070020AC070020B407002064
:10450C00B4070020BC070020BC070020C407002013
:10451C00C4070020CC070020CC070020D4070020C3
:10452C00D4070020DC070020DC070020E407002073
:10453C00E4070020EC070020EC070020F407002023
:10454C00F4070020FC070020FC07002004080020D2
:10455C00040800200C0800200C080020140800207F
:10456C00140800201C0800201C080020240800202F
:10457C00240800202C0800202C080020FFFFFFFF3F
:10458C0000000200B91E00002502000051070000C7
:04459C000102000018
:1045A000000000000000000000000000000000000B
:1045B00000000000000000000000000000000000FB
:0845C0000000000000000000F3
:0400000300001A01DE
:00000001FF
